S0100000626C655F74616B65332E7333377A
S214012000C00A0020993801006B2D03006B2D0300D8
S214012010813F03006B2D03006B2D03006B2D030026
S2140120206B2D03006B2D03006B2D03006B2D03003E
S2140120306B2D030044E903009D2B03006B2D030069
S2140120406B2D03006B2D03006B2D03006B2D03001E
S2140120506B2D03006B2D03006B2D03006D28010013
S2140120606B2D03006B2D03006B2D03006B2D0300FE
S2140120709D8701006B2D03006B2D03008136010047
S2140120804F2C03006B2D03006B2D03006B2D0300FB
S2140120906B2D0300BD3F01006B2D03006B2D03006C
S2140120A06B2D03006B2D03006B2D03006B2D0300BE
S2140120B06B2D03003D0003006B2D0300290A03006E
S2140120C073E003006FE003001D0203007FE00300DE
S2140120D077E00300010A03007BE00300690A0300BE
S2140120E0C5E3020099E50200D50A03006B2D030043
S2140120F06B2D03006B2D03006B2D03006B2D03006E
S2140121006B2D03006B2D03006B2D03006B2D03005D
S2140121106B2D03006B2D03006B2D03006B2D03004D
S2140121206B2D03006B2D03006B2D03006B2D03003D
S2140121306B2D03006B2D03006B2D03006B2D03002D
S214012140F0B515A3D3E900238DB0044603A8CDE965
S214012150062313A3D3E90023CDE9082312A3D3E969
S2140121600023CDE90A2320F018FC03AD06AE04F1E6
S214012170180755F8040BF6E80223CDE900231EF0F4
S2140121807FFEDDE900231EF0E5FEE4E80201BC4225
S214012190EFD10DB0F0BD00BF9F27F96C78D56E3F2B
S2140121A00E7F8FF27ACD6E3F200FD8309E9C6C3F0B
S2140121B010B515A3D3E90023044651EC100B1FF00C
S2140121C045F998B100220A4B0A491A600A4B1A606F
S2140121D00A4B1A600B6801330B600949012B0A6030
S2140121E004DD08481FF07EFC0123237010BD00BFEC
S2140121F0C0130020B4130020B0130020BC1300202D
S214012200B813002088E50300931804560E2DDA3F14
S2140122102DE9D04320A3D3E90023044651EC110B4A
S21401222059EC108B57EC126B1FF024F918B31CA352
S214012230D3E90023404649461FF008F9D8B11AA34E
S214012240D3E90023304639461FF000F998B1002241
S2140122500B4B0C491A600C4B1A600B6801330B6070
S2140122600A49022B0A600A490A6004DD09481FF080
S21401227039FC02232370BDE8D08300BFAFF3008092
S214012280C0130020BC130020B0130020B41300209C
S214012290B81300208EE50300931804560E2DDA3F7E
S2140122A09A9999999999A93F91ED7C3F355ECA3FD4
S2140122B02DE9FF4745A3D3E90023824651EC100BD5
S2140122C055EC114B59EC128B8DED003B8DED024B0D
S2140122D057EC156B1FF0CEF8002858D02EA3D3E983
S2140122E00023204629461FF0B1F8E0B139A3D3E90F
S2140122F00023404649461FF0BDF8A0B100232C4AF2
S21401230013602C4A13602C4A13602C4A13602C4A23
S21401231013680133022B136005DD2A481FF0E2FB28
S21401232003238AF8003020461BA3D3E9002329465D
S2140123301FF0A0F858B31AA3D3E90023DDE9000182
S2140123401FF084F818B3DDE9020100221E4B1FF0CE
S2140123507DF8E0B114A3D3E90023304639461FF0D7
S21401236089F8A0B10023124A1360124A1360124A78
S2140123701360124A1360124A13680133022B13606A
S21401238005DD10481FF0AEFB03238AF8003004B0C9
S214012390BDE8F087AFF300809A9999999999A93F7A
S2140123A0EC51B81E85EBD93FDD2406819543D33F1A
S2140123B0C0130020B0130020BC130020B41300206B
S2140123C0B813002097E503000000F63F9318045663
S2140123D00E2DDA3F91ED7C3F355ECA3F00000000CE
S2140123E02DE9F0473DA3D3E90023824651EC100BBB
S2140123F057EC116B55EC124B59EC138B1FF03AF856
S214012400002850D037A3D3E90023304639461FF0C1
S21401241031F8E0B126A3D3E90023204629461FF070
S21401242029F8A0B100222649264B1A600B68013311
S2140124300B602549022B0A6024490A6024490A6078
S21401244005DD24481FF04EFB04238AF800302046A1
S21401245017A3D3E9002329461EF0F8FF18B300227C
S214012460404649461C4B1FF005F8E0B112A3D3E9DC
S2140124700023304639461EF0FDFFA0B10022104968
S214012480104B1A600B6801330B600F49022B0A6070
S2140124900E490A600E490A6005DD0E481FF022FB50
S2140124A004238AF80030BDE8F08700BFAFF3008050
S2140124B0EC51B81E85EBD93FFED478E92631D03FE2
S2140124C0B0130020C0130020BC130020B41300205A
S2140124D0B81300209FE503000000F63F931804564A
S2140124E00E2DDA3F9A9999999999A93F0000000013
S2140124F02DE9F34743A3D3E90023824651EC100BA1
S21401250057EC116B59EC128B55EC134B8DED004BC0
S2140125101EF0B0FF00285BD03CA3D3E90023304671
S21401252039461EF0A7FF002852D03AA3D3E900236C
S214012530404649461EF08AFF002849D00022204620
S2140125402946294B1EF082FFE8B123A3D3E90023D5
S214012550DDE900011EF07AFFA8B1002323482449D3
S214012560036024480A6803602348022A036023485C
S214012570036002F102030B6005DD21481FF0B2FA89
S21401258005238AF80030002220462946164B1EF005
S21401259071FFE8B112A3D3E90023304639461EF095
S2140125A055FFA8B1002311481149036011480A6874
S2140125B003601148022A03601048036002F1020317
S2140125C00B6005DD0E481FF08DFA05238AF80030F2
S2140125D002B0BDE8F08700BFDD2406819543D33FF6
S2140125E0FED478E92631D03F0000F63FB013002034
S2140125F0C0130020BC130020B4130020B813002021
S214012600A7E50300931804560E2DDA3F9A99999977
S2140126109999A93FEC51B81E85EBD93F00000000FF
S214012620002370B5404C05468AB0E36318B10088B4
S21401263023600CF05BFD3D482AF0C8FF3C4E3D4B45
S214012640304633603C4B736025F046FB0021304634
S21401265017F08CFD32A3D3E90023A062C4E9062358
S21401266025F045FBD4E90623194310434FF0FF3309
S214012670C4E90601CDE900014FF0FF32A06A2BF054
S2140126800EF802224FF0FF31A06A2BF00DF8012060
S2140126900CF0C4FA4FF4007300222849A06A2BF00C
S2140126A05CF8B0F5007F38D100239422CDE90733DA
S2140126B009933C23CDE9033205939623A06A03A927
S2140126C0069317F06FFE35B3287C0CF065FF0546C0
S2140126D0F0B9A06A2BF022F90CF006FF0CF080FA94
S2140126E020B14FF4807000210AF0D4F80CF088FA7B
S2140126F020B14FF4006000210AF0CCF825F0BBFAB7
S214012700012017F087FD0E4A0E49A06A25F0E2FA6D
S21401271028460AB070BDFF20D7E70725F8E700BFB7
S2140127200DD501552000000040110020690345EC3D
S2140127307424002055F3010068240020682200203C
S2140127407D7C0300BD7C030010B5054C237833B9AE
S214012750044B13B1044800E000BF0123237010BDF1
S21401276090130020000000004C37040008B5034B0E
S2140127701BB10349034800E000BF08BD000000008C
S214012780941300204C370400A3F5803A704700BF2D
S214012790174B002B08BF134B9D46FFF7F5FF002193
S2140127A08B460F461348144A121A2BF0B5FC0E4BF3
S2140127B0002B00D098470D4B002B00D098470020E7
S2140127C0002104000D000D48002802D00C4800E04E
S2140127D000BF1FF005F82000290020F0D3F91EF0F5
S2140127E0EBFF00BF00000800000000000000000032
S2140127F0C00A0020D80E0020E42A002000000000B5
S214012800000000001FB5124C1022002168462BF074
S21401281083FC0121242001F005FE6946204620F0B4
S21401282043FC242020F021FBBDF802300133B0FB2D
S214012830F3F01423B0FBF3F0236BE061A36943F0DC
S2140128400103A3618022034B1A6004B010BD00BFD0
S2140128500080045000E100E0034B596903F5005283
S21401286051610122DA60704700800450044B5A69B6
S21401287003F500535A610122024B1A70704700BFDC
S21401288000800450A829002010B586B0ADF80400D9
S2140128909DF82400ADF80C30BDF82030ADF80600E8
S2140128A00291074801A90492ADF8143002F050FCD9
S2140128B0034C08B906B010BD204602F02DFBF8E720
S2140128C00000015A0B4607B50649074A08701370FF
S2140128D008200123CDE90030A620FFF7D5FF03B07D
S2140128E05DF804FBA9290020AA290020012304225F
S2140128F013B50649064C0870CDE90032A6202246DB
S214012900FFF7C2FF207802B010BD00BFA929002042
S214012910AA29002030B585B06C46114B114D0FCB5E
S21401292084E80F00104A1148D2F89814014041F08B
S2140129300311C2F89814D2F894342146034043F4A4
S214012940003343F00303C2F8943403232846C2F845
S214012950903402F0BFFA1023AB6005B030BD00BF63
S21401296030E403000000015A00C00350FCFFF0FFF2
S21401297008B50020FFF7BAFFE52804BF1022094B6F
S2140129804FF00B0108BF1A613120FFF79BFF0921A9
S2140129902C20FFF797FFBDE8084008212D20FFF700
S2140129A091BF00BF00E003503223F7B50E460C4935
S2140129B015460B700422062307460A4CCDE9003261
S2140129C0A62001232246FFF75FFFB4F900303B60E3
S2140129D0B4F902303360B4F904302B6003B0F0BDB3
S2140129E0A9290020AA2900202DE9F04D8C4C2DEDB7
S2140129F00C8B2046FFF7A4FB8A48DFF85482037845
S214012A00002B2BD0D4E900ABD4E90267D4E9044506
S214012A10D8F80030844A591D02EBC102C2E900AB66
S214012A20824A02EBC102C2E90067814A02EBC10297
S214012A30C2E900457F4A02EBC302C2E900AB7E4A07
S214012A4002EBC302C2E900677C4A02EBC302C2E999
S214012A500045002201330270C8F80030D8F8003073
S214012A60042B40F3D780704D754C724E0FCC0FC5BA
S214012A700FCC0FC594E80300A4F1200785E80300F6
S214012A800FCE0FC70FCE0FC796E803006D4E84E832
S214012A9003000FCE654C684F0FC40FCE0FC496E8E7
S214012AA00300A6F1200C84E803000FCFACE80F006A
S214012AB00FCFACE80F0097E8030086E803005C4FF1
S214012AC0614E0FCE0FC70FCE0FC796E8030087E8FB
S214012AD003005A4FA6F1200C0FCFACE80F000FCF22
S214012AE0ACE80F0097E8030086E803000A21A5F189
S214012AF0200020F02BF80A21A5F12000B0EE40AA14
S214012B00F0EE60AA1FF0BAFF0A21A5F12000B0EE90
S214012B10409AF0EE609A1FF087FF0A21A4F1200088
S214012B20B0EE408AF0EE608A1FF07EFF0A21A4F123
S214012B302000B0EE40DAF0EE60DA1FF0F7FF0A216F
S214012B40A4F12000B0EE40BAF0EE60BA1FF04AFFE2
S214012B50B0EE40CAF0EE60CA3C48B0EE480AF0EE6D
S214012B60680AFFF725FBB0EE4D2AF0EE6D2AB0EEAF
S214012B70481AF0EE681AB0EE490AF0EE690A3348D0
S214012B80FFF746FBB0EE4C5AF0EE6C5AB0EE4B4AED
S214012B90F0EE6B4AB0EE4A3AF0EE6A3AB0EE4D2AE3
S214012BA0F0EE6D2AB0EE491AF0EE691AB0EE480A58
S214012BB0F0EE680A2548FFF77BFBB0EE4B3AF0EEE5
S214012BC06B3AB0EE4A2AF0EE6A2AB0EE491AF0EEF7
S214012BD0691AB0EE480AF0EE680A1C48FFF700FCD6
S214012BE0B0EE4C4AF0EE6C4AB0EE4B3AF0EE6B3A71
S214012BF0B0EE4A2AF0EE6A2AB0EE491AF0EE691AE9
S214012C00B0EE480AF0EE680A1048FFF771FC0023A0
S214012C10C8F800300D4BBDEC0C8B1878BDE8F08D74
S214012C20B8100020A8290020D80E0020280F002068
S214012C30780F00204010002068100020901000201F
S214012C40C80F0020F00F002018100020B429002023
S214012C50AC1300202DE9F04102F038FC01280ED11A
S214012C603B4B04205A6E4FF480233A49520358BF17
S214012C70394A4B6601F51041086258BF53661FF08A
S214012C8081FEFFF7BFFDFFF7E7FD01230B220221BF
S214012C90032002F09FF80321012308460B2202F0CD
S214012CA099F8042201231146002002F093F8FFF759
S214012CB031FEFFF75DFE4B201FF075FE4B201FF027
S214012CC07CFE0A201FF083FE77212720FFF7FAFDFE
S214012CD007212820FFF7F6FD2D212920FFF7F2FD19
S214012CE00524DFF888801D4F1D4E1E4D1D48FFF739
S214012CF027FAD5E90023013CE8E80223D5E90223B7
S214012D00E7E80223D5E90423E6E80223EED1164CD0
S214012D10164D0FCD0FC40FCD0FC495E803000F4D10
S214012D2084E803000FCD124C0FC40FCD0FC495E8F5
S214012D3003000B4D84E803000FCD0E4C0FC40FCDDE
S214012D400FC495E8030084E80300BDE8F08100BFE6
S214012D50008000500090005000A00050F00F0020AE
S214012D6018100020B8100020D80E0020C80F002030
S214012D70280F0020780F002070B50368A94A23F4B5
S214012D807F4323F00703934288B000F06F8109D890
S214012D90A54A93422BD002F5A022934200F03D8132
S214012DA008B070BDA14A934200F0B88102F17D726D
S214012DB002F540329342F3D100248DF81840FFF714
S214012DC013FE8DF81900FFF70FFE8DF81A40FFF776
S214012DD00BFE8DF81B40FFF707FE954805221B21C9
S214012DE006AB00788DF81C400FF0F2F9D8E70DF12C
S214012DF00F0104A80FF002FA0446F8B18D4D8E4972
S214012E00286820F005FF8D49286820F001FF1FF093
S214012E105CFF1FF05BFF8A4B8A4A00938A498B232B
S214012E20286820F0F5FE894A8949286820F0F0FED6
S214012E3022468849286820F0EBFEFEE79DF815300B
S214012E4001468DF818309DF8143008228DF8193097
S214012E509DF8133018208DF81A30FF238DF81B309B
S214012E60FE238DF81C309DF812308DF81D309DF82C
S214012E7011308DF81E309DF810308DF81F3006ABDE
S214012E800FF078F90546F8B16A4C6B49206820F0D6
S214012E90BFFE6A49206820F0BBFE1FF016FF1FF038
S214012EA015FF674B674A009367499D23206820F00A
S214012EB0AFFE664A6649206820F0AAFE2A466649A1
S214012EC0206820F0A5FEFEE7644E30460FF0DEF8DF
S214012ED0054610B3574C5849206820F099FE5749CB
S214012EE0206820F095FE1FF0F0FE1FF0EFFE544B19
S214012EF0544A00935449A223206820F089FE584979
S214012F002B46584A206820F083FE284600F090FCA5
S214012F105549206820F07CFEFEE7022130780FF04C
S214012F20EFF8044610B3434D4349286820F070FE7D
S214012F304249286820F06CFE1FF0C7FE1FF0C6FE4F
S214012F403F4B404A00934049A723286820F060FE83
S214012F5043492346434A286820F05AFE204600F09B
S214012F6067FC4149286820F053FEFEE7A02203468D
S214012F700090114630780FF0A1F8054610B32D4C9D
S214012F802D49206820F044FE2C49206820F040FEA0
S214012F901FF09BFE1FF09AFE294B2A4A00932A49EE
S214012FA0B023206820F034FE2D492B462D4A206898
S214012FB020F02EFE284600F03BFC2B49206820F02E
S214012FC027FEFEE7022130780FF0AEF8054600280E
S214012FD03FF4E6AE174C1849206820F019FE174951
S214012FE0206820F015FE1FF070FE1FF06FFE144BD8
S214012FF0144A00931449B423206820F009FE1849A6
S2140130002B46184A206820F003FE284600F010FCE4
S2140130101549206820F0FCFDFEE7027B044B1A7080
S214013020BEE600BFA0000601A0000100A0000A0342
S214013030D70C002044140020E0E4030040E4030021
S21401304079E5030045E403004EE403005AE4030077
S21401305076E403008EE40300BBE40300D60C0020F4
S214013060E5E40300E2E40300FAE40300FF225D4C1A
S2140130705D4B022120781A700FF042F8054610B316
S2140130805A4C5B49206820F0C3FD5A49206820F05D
S214013090BFFD1FF01AFE1FF019FE574B574A00934B
S2140130A05749CA23206820F0B3FD56492B46564A95
S2140130B0206820F0ADFD284600F0BAFB5349206891
S2140130C020F0A6FDFEE7022120780FF02DF8054638
S2140130D000283FF465AE454C4549206820F098FD30
S2140130E04449206820F094FD1FF0EFFD1FF0EEFD2F
S2140130F0414B424A00934249D023206820F088FD84
S21401310040492B46404A206820F082FD284600F0C0
S2140131108FFB3E49206820F07BFDFEE7C379012B3B
S2140131207FF43EAEB0F805301B2B7FF439AE038931
S214013130022B2AD100234FF480501A4619460FF06D
S2140131407BF8054600283FF42BAE284C284920681A
S21401315020F05EFD2749206820F05AFD1FF0B5FDDE
S2140131601FF0B4FD244B254A00932549EA23206825
S21401317020F04EFD264A2749206820F049FD2A46C0
S2140131802549206820F044FDFEE7002B7FF408AEB9
S2140131901A46194618460FF04FF8054600283FF420
S2140131A0FFAD124C1249206820F032FD114920680B
S2140131B020F02EFD1FF089FD1FF088FD0E4B0F4AF3
S2140131C000930F49F223206820F022FD104A11498E
S2140131D0206820F01DFD2A461049206820F018FDC1
S2140131E0FEE700BFD60C0020D70C002044140020B8
S2140131F0E0E4030040E4030079E5030045E403004E
S2140132004EE40300E5E40300E2E40300FAE403000D
S2140132100BE5030076E403001EE503004CE503001E
S21401322030B503687F4A23F47F4323F007039342B4
S21401323089B040F0F4800822002112207A4B0EF06B
S21401324099FF044610B3794D7949286820F0E0FCCF
S2140132507849286820F0DCFC1FF037FD1FF036FDAA
S214013260754B764A009376493D23286820F0D0FCBA
S21401327074492346744A286820F0CAFC204600F0A8
S214013280D7FA7249286820F0C3FCFEE701460322FC
S21401329014206F4B0EF06EFF044610B3634D644965
S2140132A0286820F0B5FC6349286820F0B1FC1FF0BF
S2140132B00CFD1FF00BFD604B604A009360494B23E9
S2140132C0286820F0A5FC5F4923465F4A286820F05D
S2140132D09FFC204600F0ACFA5C49286820F098FC78
S2140132E0FEE70146052216205A4B0EF043FF05461F
S2140132F010B34E4C4E49206820F08AFC4D49206898
S21401330020F086FC1FF0E1FC1FF0E0FC4A4B4B4A24
S21401331000934B495923206820F07AFC49492B46F3
S214013320494A206820F074FC284600F081FA474993
S214013330206820F06DFCFEE70DF10F0104A80EF0E9
S2140133405DFF044610B3394D3949286820F060FC0A
S2140133503849286820F05CFC1FF0B7FC1FF0B6FC6B
S214013360354B364A009336496423286820F050FCD2
S21401337034492346344A286820F04AFC204600F0A7
S21401338057FA3249286820F043FCFEE79DF81530CD
S21401339001468DF818309DF8143008228DF8193042
S2140133A09DF8133018208DF81A30FF238DF81B3046
S2140133B0FE238DF81C309DF812308DF81D309DF8D7
S2140133C011308DF81E309DF810308DF81F3006AB89
S2140133D00EF0D0FE054610B3144C1549206820F0B7
S2140133E017FC1449206820F013FC1FF06EFC1FF038
S2140133F06DFC114B114A009311497423206820F08B
S21401340007FC10492B46104A206820F001FC28468C
S21401341000F00EFA0D49206820F0FAFBFEE709B02D
S21401342030BD00BFA0000100AFE50300441400203A
S214013430E0E4030040E40300EAE50300B8E5030026
S2140134404EE40300E5E40300E2E40300FAE40300CB
S214013450E0E50300E4E5030010B5234C01F0BEF8F7
S21401346001F0DEFA236F23F0070343F0030323671B
S2140134701FF0C3FD1D4B00209B6A9B075EBF012208
S2140134801B4B9A62D4F8203123F0030343F0020366
S214013490C4F82031D4F8243123F0070343F00203A3
S2140134A0C4F82431D4F8403123F0030343F0020377
S2140134B0C4F84031D4F8603123F0030343F002032B
S2140134C0C4F86031D4F8403223F0030343F002031A
S2140134D0C4F84032D4F8003223F0070343F0020365
S2140134E0C4F8003210BD00BF0080005000C000507C
S2140134F000E0005008B501F0E9FF01280ED1144B99
S21401350004205A6E4FF480231249520358BF124AC0
S2140135104B6601F51041086258BF536603F026FE5C
S2140135201FF0E0FB03F0B0FD03F00AFE03F0CEFD52
S21401353020F01AFBFFF790FF03F0B6FD1FF0C9FB62
S21401354000F062FA00F074FDBDE8084004F05EBACF
S214013550008000500090005000A0005030B5224D71
S21401356095B00DAC0FCD0FC495E80700032384E892
S21401357007008DF84D3029231C4A1D49CDE9022349
S2140135801C4B1024CDE904134FF48073224600210E
S21401359009A806932AF0C0FD4FF4A020164B07A9F0
S2140135A0CDE907030F238DF82430144B0DAA0A9397
S2140135B020230B9301238DF83130114B11480093D2
S2140135C002AB8DF8254004F005F804469DF832302C
S2140135D04FF4E130002B0CBF032100211FF0B6FB96
S2140135E0204615B030BD00BF8CE803000000065031
S2140135F0000500060008000724000650B529002033
S214013600C413002020140020831E012B10B512D8ED
S214013610012910D8114B04221B6905210020C3F390
S214013620401301F0D7FB0E4B1B681868A8B1BDE824
S2140136301040436A18478B1E012B0CD801280CD862
S214013640BDE810400022054B05211B691046C3F357
S214013650401301F0BFBB0129E5D910BD00C00350DE
S214013660C80A002008B50449044804F093FABDE8E6
S2140136700840FFF773BF00BFC00A002018140020DF
S214013680014820F033BC00BF20140020014B1A6A09
S21401369018681047201400207FB500240368464AA6
S2140136A023F47F4323F00703934205468DF8084031
S2140136B08DF809408DF80A408DF80B408DF80C40C6
S2140136C08DF80D406DD002F18272934271D1B0F83F
S2140136D005301F2B6DD1FF2304A91A4611E90300FB
S2140136E01FF0ECFA012814BF41F2FC14334B4FF0E3
S2140136F01F0108BF187004F0FC0228790EF050FD77
S214013700064610B32E4C2F49206820F081FA2E4928
S214013710206820F07DFA1FF0D8FA1FF0D7FA2B4B5D
S2140137202B4A00932B494E23206820F071FA2A4930
S21401373033462A4A206820F06BFA304600F078F8C3
S2140137402749206820F064FAFEE71C4B1B78002B03
S2140137502FD028790EF0FCFC054650B3184C1949B9
S214013760206820F055FA1849206820F051FA1FF019
S214013770ACFA1FF0ABFA154B154A009315495423C2
S214013780206820F045FA14492B46144A206820F098
S2140137903FFA284600F04CF81149206820F038FA24
S2140137A0FEE7064B1B7823B104B0BDE8704020F05D
S2140137B08FBC04B070BD00BFA0000601D529002053
S2140137C044140020E0E4030040E403001CE9030085
S2140137D0A8E803004EE40300E5E40300E2E4030086
S2140137E0FAE40300012208B5074B1A700022074BC2
S2140137F01A700422064B1A701F22064B1A7003F029
S214013800DFFC054B186008BDD80C0020D629002027
S214013810D90C0020DA0C002044140020024B034986
S214013820186820F0F5B900BF441400203CE90300F5
S21401383070B50C4C0C490646206820F0E9F903F0F7
S214013840BFFC0546206803F0AFFC3046FFF7E6FFF5
S214013850284603F0A9FC20680449BDE8704020F022
S214013860D7B900BF441400203EE9030040E9030035
S21401387007B508201FF089FA02238DF80030054BA2
S214013880684601931FF032FA082003B05DF804EB96
S2140138901FF087BA006A181008B500F02DF8124B11
S2140138A012498B4212D30020114B12498B4218D376
S2140138B0FEF76EFF186850F82240586840F822401C
S2140138C0013298688242F5D30C33EAE70022F8E722
S2140138D01C6844F8220001325C68A242F8D308331F
S2140138E0E4E70022F8E700BF54370400603704001D
S2140138F060370400603704004FF400414FF0FF309A
S214013900124B134A10B59A60D3F8882042F470021D
S214013910C3F888200F4A916601F1884101F50052EB
S21401392010664FF6DF7050660220C3F8D000BFF372
S2140139304F8FBFF36F8F08244FF440330648C0F80B
S2140139408041D36004600B6110BD00BF00ED00E054
S214013950002001000090005000E100E0014B1868D3
S214013960704700BFD00A0020084B1B6F03F0070307
S214013970022B04D0032B05D0012B05D0FEE7044B08
S21401398018687047034BFBE70348704700800050F8
S214013990D00A0020D40A0020002D310108B5FFF717
S2140139A0E3FF054B1B6FC3F303330133B0FBF3F0A7
S2140139B0024B186008BD00BF00800050CC0A0020F2
S2140139C00048704700B4C404014B1868704700BF34
S2140139D0D40A0020054B1860054B1B6F03F0070344
S2140139E0032B01D1FFF7DABF704700BFD40A0020CE
S2140139F00080005000487047002D3101014B1868C7
S214013A00704700BFD80A00200020836A10B5B3F5BE
S214013A10903F0ED21968084A91420AD1074C227883
S214013A2012F0FD0F04D1DB69984708B90123237012
S214013A3010BD4FF48170FBE707B0CD5ED72900209B
S214013A404FF00053074A1A60BFF34F8F0649074BE2
S214013A50CA6802F4E0621343CB60BFF34F8F00BF26
S214013A60FDE700BF02020FF000ED00E00400FA05DA
S214013A7005490A681318054883428CBF4FF0FF3288
S214013A800B601046704700BFDC0A00200080002053
S214013A9008B501213A2000F0C5FC032101230422C8
S214013AA0002001F097F900201FF0E4FA0122214BD3
S214013AB04FF46070C3F844241FF0D7F91E4B00F58D
S214013AC0D520D3F8F02000F2FC4042F00102C3F802
S214013AD0F020D3F8FC2042F08072C3F8FC20174A8D
S214013AE0A3F55D431A60164B0222B0FBF3F0154BAB
S214013AF001381861C3F8F0204FF48072C3F804232C
S214013B004FF06043104A0020C3F8B02F0F4AC3F8A5
S214013B10802ED3F8002E42F48072C3F8002EFF22C6
S214013B2083F82020D3F8002E22F48072C3F8002EEA
S214013B3008BD00BF00D0035000ED00E0FF030040C9
S214013B40F8590D00000004E055CEACC5090001008F
S214013B504FF06043D3F8802E30B5D20715D5012437
S214013B600B4D8440D5F8FC2042F08072C5F8FC204D
S214013B70D3F8002E2243C3F8002E53F82020002A43
S214013B80F0D003F82010002030BD1120FCE700BF64
S214013B9000ED00E02DE9F04F9A46564B85B01B78B4
S214013BA006460F461546DDF83C909DF844B0DDF814
S214013BB05080002B00F08D80072A00F28C800E9B2F
S214013BC0002B00F08880B9F1000F00F08480129B72
S214013BD0B3F5006F7FDC012802D1109B002B7AD051
S214013BE0454B03EB05131B7B002B76D0434C102271
S214013BF0002168462AF090FA04EB45141022002FA3
S214013C0059D1394620462AF087FA43F210036380D9
S214013C10BBF1000F03D1E37843F00303E370374AA7
S214013C200E9B02EB451CCCE90193129B6901013BFB
S214013C30C3F30A009DF84C30012E03F003034FEA4C
S214013C40836343EA001E53582D48CDF800A000EACE
S214013C5003004EEA0003535041D113230CF1100E1A
S214013C60CCF80C309CE80F008EE80F006FF00301D3
S214013C70DCF81C20109B61F39F02012FCCF81C205E
S214013C80CCF8143003D1CCF81890CCF804300027C7
S214013C90194A290102EB051342F80180159A2846B4
S214013CA05A60694622469F605E7301F0F3FA384611
S214013CB005B0BDE8F08F002120462AF02DFA4FF41A
S214013CC044736380BBF1000FA9D1E37843F030035E
S214013CD0A4E70C48ECE70C48EAE70C48E8E7B8F13B
S214013CE0000FD4D19CF8023068F304138CF802302C
S214013CF0CDE700BFD829002048140020C8140020B2
S214013D000F80FFF3028000F0018000F0078000F0D2
S214013D1038B5124B05461B78DBB1E0B11FF089F9C7
S214013D200F4A00231146147B54B92B6001251A0152
S214013D3001EB03131D738C501FF081F9204638BD2B
S214013D400133082B02F11002EDD11FF078F9054876
S214013D50F5E70548F3E70548F1E700BFD829002055
S214013D6048140020048000F0028000F0018000F07A
S214013D7013B51FF05EF900230B4A147B7CB901339F
S214013D80082B02F11002F8D1019001F025FA074B39
S214013D9001981C701FF053F9204602B010BD1FF0A9
S214013DA04EF90348F9E700BF48140020D82900203F
S214013DB0058000F00D4B10B51B78044693B107281B
S214013DC012D81FF036F90A4B03EB04131A7B2AB1FB
S214013DD000241C731FF033F9204610BD1FF02FF985
S214013DE00448FAE70448F8E70448F6E7D82900202B
S214013DF048140020068000F0028000F0018000F0E8
S214013E00154B13B51868002301908DF804301FF088
S214013E1010F9124B1C7824B11FF011F9104802B0AA
S214013E2010BD01221A701FF00AF90E4B01A81C736F
S214013E301C7783F82C4083F83C4083F84C4083F889
S214013E405C4083F86C4083F87C4008238DF807308B
S214013E5001F0EEF92046E2E794E90300D8290020B4
S214013E60038000F0481400200A4A08B512785AB1B7
S214013E7007280BD8084A02EB00131B7B43B100212D
S214013E8001F0C8F9002008BD0448FCE70448FAE739
S214013E900448F8E7D829002048140020028000F0E2
S214013EA0018000F0078000F00A4A08B512785AB17E
S214013EB007280BD8084A02EB00131B7B43B10121EC
S214013EC001F0A8F9002008BD0448FCE70448FAE719
S214013ED00448F8E7D829002048140020028000F0A2
S214013EE0018000F0078000F00A4A08B5127852B146
S214013EF007280AD8084A02EB00131B7B3BB101F0E6
S214013F0017FA002008BD0548FCE70548FAE705480A
S214013F10F8E700BFD829002048140020028000F0EE
S214013F20018000F0078000F00D4B1B7893B1072845
S214013F3012D889B10B4B03EB00131B7B73B10A4BF1
S214013F401A6D012303FA00F010401ABF00200B700F
S214013F500870704705487047054870470548704720
S214013F60D82900204814002000000450028000F0E8
S214013F70018000F0078000F00B4A10B512780C465D
S214013F8062B107280CD859B1084A02EB00131B7B13
S214013F9043B101F0DFF92070002010BD0448FCE7B2
S214013FA00448FAE70448F8E7D82900204814002016
S214013FB0028000F0018000F0078000F02DE9F84350
S214013FC0174B1F6D5B6D1F4000D5FEE701260025D0
S214013FD0144CDFF85480DFF85490374217D023682A
S214013FE0C8F850609BB1A168284601316268A1609B
S214013FF09847637B012B0AD148B909EB45131A7B15
S21401400060F341021A731A7F60F341021A77013591
S214014010082D4FEA460604F11004DED1BDE8F88308
S214014020000004504814002000200450C81400204A
S214014030024B1968024B186815F0ACBCE40A002064
S214014040E00A002037B5920004460D4601922AF098
S214014050E7F9431C0BD060B929462046019A2AF09D
S21401406024F80028044808BF002003B030BD0348E8
S214014070FBE70348F9E700BF10E000F021E000F09D
S21401408024E000F010B504462AF0BAF9431C10D01B
S21401409088B901F023FA234620F003002044984211
S2140140A001D1002010BD53F8042B0132F7D003488C
S2140140B0F8E70348F6E70348F4E700BF0EE000F030
S2140140C021E000F024E000F008B51EF0ABFF014B44
S2140140D0186008BD081C0020014B18681EF0A6BF1A
S2140140E0081C0020044BD3F88420D206FBD4D3F856
S2140140F08400C0F3811070470040005038B5104B63
S2140141000546D3F820310C4603F00303022B0BD0EF
S214014110032B0DD0012B0FD1FFF720FC052305B192
S214014120286004B1236038BDFFF74EFC0323F6E791
S214014130FFF760FC0223F2E701230020EFE700BF50
S2140141400080005073B50D4600210E4B0191D3F847
S2140141508041064604F00304012C09D0022C0CD041
S2140141600C460EB1019B336005B12C6002B070BDE8
S21401417001A8FFF7C3FF0F24F3E7FFF73BFC01900D
S214014180EFE700BF0080005038B5184B0546D3F85E
S21401419024010C4600F00700062805D8DFE800F0E9
S2140141A0230B131B1F0F17000023184605B12860A9
S2140141B004B1236038BDFFF7D1FB0523F6E7FFF70F
S2140141C0CDFB0623F2E7FFF7FFFB0323EEE7FFF73E
S2140141D0FBFB0423EAE7FFF70DFC0223E6E71EF0EC
S2140141E0C5FD0723E2E70123E0E700BF008000509A
S2140141F038B5104B0546D3F840310C4603F003039F
S214014200022B0BD0032B0DD0012B0FD11EF0B0FDCE
S214014210092305B1286004B1236038BDFFF7EEFB22
S2140142200823F6E71EF0A7FD0B23F2E70123002083
S214014230EFE700BF0080005038B5144B0546D3F8B1
S21401424000020C4600F00700042804D8DFE800F05E
S2140142501B0A0E1216000023184605B1286004B189
S214014260236038BD1EF084FD0923F6E7FFF7C6FB81
S2140142700823F2E71EF07FFD0B23EEE7FFF78EFB28
S2140142800E23800AE9E70123E7E700BF008000501C
S21401429038B5104B0546D3F840320C4603F00303FD
S2140142A0022B0BD0032B0DD0012B0FD11EF060FD7E
S2140142B0092305B1286004B1236038BDFFF79EFBD2
S2140142C00823F6E71EF057FD0B23F2E700231846F6
S2140142D0EFE700BF0080005038B5104B0546D3F815
S2140142E060310C4603F00303022B0BD0032B0DD0D9
S2140142F0012B0FD11EF03CFD092305B1286004B146
S214014300236038BDFFF77AFB0823F6E71EF033FD7E
S2140143100B23F2E701230020EFE700BF00800050E7
S21401432010B40D4C0B46D4F8204204F00304012CC3
S2140143300AD0022C0CD008B1002101600BB100227A
S2140143401A605DF8044B70475DF8044BFFF7D6BE64
S2140143505DF8044BFFF74CBF0080005038B50C46A3
S21401436005461EF05FFE064B9A6A82EA040101EAE0
S214014370050454409C62BDE838401EF057BE00BF9D
S21401438000C00050B0F5207F1FD009D8B0F5007FDF
S21401439015D003D868B1B0F5C07F0AD000200CE074
S2140143A0B0F5607FFAD10B4BD3F88000C0F3011053
S2140143B003E0084B186FC0F3033001307047054B1C
S2140143C0D3F89000C0F30460F7E7024B186FC0F310
S2140143D08020F2E7008000504FF400320E4B014679
S2140143E010B500209A66FFF7CDFF41F671324843BB
S2140143F00A490B4B88428CBF4FF480100020DC69C1
S214014400DA639A6822F4401202439A60E20344BFD8
S2140144100022DA6310BD00BF00900050005A62020D
S21401442000000350420910B510D0012A10D00B4BE2
S2140144300B4C022A18BF234600F01F0051B103F5AA
S2140144408053012202FA00F0186010BD1346F3E70C
S214014450044BF1E703F50053F3E700BF6880005013
S214014460608200506480005008B580201EF0FDFC7C
S214014470034B98429EBF4FF48032024B1A6708BD29
S214014480005A620200A000501FB50023B0F5807FDD
S214014490019377D028D8382800F094800BD8243898
S2140144A0092810D809280ED8DFE800F06767676783
S2140144B00D0D620D377D52285FD008D83D283BD0C0
S2140144C03E2800F08480019805B05DF804FB802842
S2140144D0F9D1414B1B6F03F00703013B032BF2D8C5
S2140144E0DFE803F044413F6CB0F5D06F5BD019D8DC
S2140144F0B0F5A06F66D00AD8B0F5806F3DD0B0F5A4
S214014500906FE0D1002001A9FFF73EFEDBE7B0F592
S214014510B06F2DD0B0F5C06FD5D1002001A9FFF73F
S21401452067FED0E7B0F5006FECD00AD8B0F5E06FC3
S2140145304DD0B0F5F06FC6D1002001A9FFF7CCFE33
S214014540C1E7B0F5086FBED1234BD3F8003103F0B5
S2140145500303022B2CD0032B2ED0012B30D1FFF7D7
S21401456033FA032300E005230193ACE70223FBE7BC
S214014570002001A9FFF7E6FDA5E7002001A9FFF746
S214014580BDFDA0E702934FF0E0231B695B0705D54D
S214014590FFF704FA0C230393039BE5E703A902A89C
S2140145A0FFF726FEF8E7002001A9FFF745FE8AE798
S2140145B0FFF724FA0823D7E71EF0D8FB0723D3E733
S2140145C00123D1E7002001A9FFF7AAFE7BE700201F
S2140145D001A9FFF75DFE76E7008000504FF4002248
S2140145E0034B5A66012203F580439A62704700BF67
S2140145F00090005008B5FFF747FF082811D009388A
S214014600012811D84FF40012094B4FF6FF705A6675
S21401461003F5D8335B6A13F0010F18BF4FF4FA7035
S21401462008BD044B1888FBE74FF6FF70F8E700BF9C
S21401463000900050C40C002070B504468020FFF79F
S21401464023FF032800F082804FF40022444B02210E
S2140146505A6645F60E03434AC2F88030424B9962C9
S214014660012103F580539962936DD903FCD4D4E9F3
S21401467000131B0543EA0163E17B94F822500B43C8
S214014680217B94F8236043EA0143617B43EA0133CB
S214014690A17B43EA811313619169D4E904031B06E4
S2140146A043EA806301F000410B43A17EE07E0B43A9
S2140146B0217E43EA0143617E43EA01239361E36974
S2140146C0126A002B0CBF0021082122F00D0242EADB
S2140146D0030242EA8002234B42EA01021A6294F87C
S2140146E020204FEA421232D1986A94F8211020F025
S2140146F0330042EA0112024342F001029A621B4A67
S214014700996D32EA0101FBD1022217498A621A65C4
S2140147109A6D5200FCD41869A26820F4700040EA31
S21401472002504FF0004218610F4B9A611DB90222E8
S21401473003F580539A6216B901220D4B9A6294F8DA
S21401474024301BB1074B0B4AC3F8802070BD996A11
S21401475021F0330131430A4342EA4502EEE700BF46
S2140147600090005000C0005000D0005003000140EF
S21401477000E00050F1A7FFFF1E4B13B5996A9A6D32
S21401478012F4803F18BF01241B4A18BF946202240A
S21401479094629B6DDB0303D5164A936D9C07FCD58B
S2140147A00222154B134C1A65A36D5B00FCD4134B08
S2140147B0A26993F9003022F47F020344000222F436
S2140147C07F4280B283F30803104340EA0340A061AE
S2140147D002200191FFF7C2FDA36D019913F4803FFA
S2140147E005D0012002B0BDE81040FFF7B7BD02B00A
S2140147F010BD00BF00C0005000D00050D9290020D5
S214014800014B93F900007047D92900200122124874
S214014810124B816A9A62826D02F00302032AFAD170
S21401482002229A621A650C4B9A6D5000FCD4012044
S2140148309A6D0A4A10659A6D9207FCD4064B9A6DDA
S2140148409007FCD50220054A10659A6D9207FCD5A3
S2140148500320FFF783BD00BF00C0005000D000500A
S214014860F0B5D0E901434FF480061A4A417805783D
S21401487056664FF4D156022702F5B8325662164EE6
S2140148804F2977604FF0010728BF4F2106F5805664
S21401489077601669F603FCD441EA052151611B01D4
S2140148A0417B43EA04230B43017B43EA41039360C4
S2140148B0C37B817B1B0143EA4113417C0B43017C93
S2140148C043EA41035360837C13B16FF4D1535362BF
S2140148D0F0BD00BF0090005000100250014B188040
S2140148E0704700BFC40C0020014B1880704700BF02
S2140148F0C20C00204FF4001208B5184B5A6602236A
S214014900174A5360936813F48033FBD1012822D1F0
S214014910FFF75AF8134B984215D003F5122303F507
S214014920F863984213D0104B00EB8002400AB3FBA9
S214014930F0F0520A0A4BDA62012218635A62002228
S214014940074B5A6008BD45F67A10084AF2E745F665
S2140149501A00074AEEE75362F1E700BF00900050E5
S2140149600040025000F0490264666666D8B8050049
S214014970BBCF0500B0F5207F10B50C4642D008D855
S214014980B0F5007F33D003D888B1B0F5C07F0ED024
S21401499010BDB0F5607FFBD11F4B013CD3F88010F2
S2140149A021F0300141EA0414C3F88040F0E71EF01C
S2140149B054FA1EF01DFB4FF48031184A164B11674E
S2140149C0196F013C21F4704141EA04341C67FEF77B
S2140149D0E5FF0446FFF786FBC0F1020120461EF004
S2140149E001FB00F02DF8BDE81040FFF73DBD0A4B76
S2140149F0013CD3F8901021F0F85141EA0464C3F861
S214014A009040C5E7044B013C196F21F4806141EAEF
S214014A1084241C67BCE700BF008000500090005053
S214014A2008B50121022000F0D7F81EF016FA1EF094
S214014A30DFFA4FF48032014B1A6708BD0090005030
S214014A4008B54FF4C0701EF010FABDE808400449DE
S214014A5088428CBF022101214FF42070FFF78ABFE4
S214014A6080F0FA02034B5868C0F30800003818BFFC
S214014A700120704700ED00E0194B10B51B6873B3B9
S214014A80184A5268012A2AD0174A8020C2F80031F3
S214014A90FFF7FAFC05281FD14FF4C070FFF772FC30
S214014AA00128044604D102214FF4C070FFF762FFCB
S214014AB007220E4B1A610122A3F580535A60094A58
S214014AC01369DB07FCD5012C09D12146BDE810404E
S214014AD04FF4C070FFF74EBF0122054B5A6010BD60
S214014AE0BC1C002000C001500080005000E00150B6
S214014AF000D0015000224FF40031074B1A60074ADC
S214014B00516602F598325268012A02BF044AD2F869
S214014B1000211A60704700BFBC1C002000900050A6
S214014B2000800050044A4178536F23F4407343EAEF
S214014B3001235367704700BF0040005010B504467C
S214014B4008B1FFF7D7FF0E4A136943F00403136158
S214014B5003F020FA1EF076FA1EF064FA29F058FCEB
S214014B601EF064FA1EF06FFA03F028FA1CB1BDE8D5
S214014B701040FFF781BFBDE81040FEF70FBF00BF32
S214014B8000ED00E010B5044608B1FFF7B3FF0C4A8C
S214014B90136943F00403136103F0FCF91EF042FAB3
S214014BA029F036FC1EF042FA03F008FA1CB1BDE803
S214014BB01040FFF761BFBDE81040FEF7EFBE00BF33
S214014BC000ED00E0034A0179D36E23F030030B4376
S214014BD0D366704700400050F8B504461C4BD3F826
S214014BE08420D106FBD4D3F88430C3F381139C42CE
S214014BF02CD0FEF7B9FE012C064602D121461EF046
S214014C00F1F91EF00FFA4FF00072124B07465A6682
S214014C1020461EF01DFA4FF480630D4D621E934030
S214014C202B676B6E9A0103D4D5F884309B060AD5A0
S214014C3038461EF0FBF9022C08D13046BDE8F84094
S214014C4000211EF0CFB9D5F88430EAE7F8BD00BFE1
S214014C50004000500060005007B518B90191FEF7FA
S214014C6083FE0199064B1B7843B1064B984205D843
S214014C70012003B05DF804EBFFF7AEBF0220F8E7B2
S214014C80DA290020005A62020278034B0121002033
S214014C901A70FFF7E1BF00BFDA2900204FF000428B
S214014CA0012138B5274B5A6603F50C2359604AF69D
S214014CB0CD33254A556C13640D4048BB94680C40AF
S214014CC009D0224B224C9960D36ADB0710D4A0424C
S214014CD00CD14FF0FF3401221C4B5A6015B11A4B10
S214014CE01C4A1A6428F0F5FC204638BD0130EBE773
S214014CF0A0424FF0FF3418BF0024ECE70131D36A1D
S214014D0013F0080307D08142F8D16FF00104E5E7FC
S214014D1000210F48F3E78142F7D020210B4A516268
S214014D200121A2F5805291600749094A486A800626
S214014D3003D49342E9D00133F8E79342E5D0002447
S214014D40CCE700BF009000500040095000600950B9
S214014D5040420F003254FFFF4FF0004238B5194B66
S214014D60194C5A66012203F50C235A604AF6CD33D4
S214014D70656C23644378154093401343134AD36309
S214014D80A368827823F0740343EA0213C278002AE8
S214014D9014BF042200221343A3600279837943EAF5
S214014DA0022323614279C37943EA022363610078CF
S214014DB0FFF774FF0DB1064B236428F08AFC01202F
S214014DC038BD00BF00900050004009500040005020
S214014DD03254FFFFF8B504460D461F4616464AB143
S214014DE001238B403021194A01FB0022FFB141F219
S214014DF01001535004EB4403072D4FF00F014FEA07
S214014E00031317D8A80006FA00F281401048184488
S214014E101EF01FF956B9012130230C4801FA05F599
S214014E2003FB040077B141F21003C550F8BD42F20E
S214014E301001DEE7A5F10800800006FA00F28140C5
S214014E400448E4E742F21003EFE700BF00C0035056
S214014E5004C003500CC00350F8B505460E46144670
S214014E605AB3826803F0030722F4407282601EF090
S214014E70D9F8AA6882EA072303F440735340AB606B
S214014E801EF0D4F836B9104B9D4217D12E201DF0D6
S214014E90ECFF0646AB680D4BD85D60430DD06FEA5C
S214014EA0C4040444A319B3FBF0F3AA68013B9207B8
S214014EB002D5002B08BF0123AB61F8BD044B9D4210
S214014EC0E8D12F20E3E700BF0000015ABCE9030048
S214014ED00080065038B500230E4A036400F50053DF
S214014EE0DA634A7804460D4600F108037AB903F5F9
S214014EF0805302221A602046D5E901122B7BFFF768
S214014F00ABFF20462978BDE838401EF0B4B803F55B
S214014F100053EEE7FFFF1F00884B2DE9F043984250
S214014F2022D0874B984240F00581864B40250526C6
S214014F304FF000084FF0030C996800F50054C26B5F
S214014F4012F4C06F16D0970510D5FD225A700922AB
S214014F501A700022026493F90110012900D15A70D7
S214014F6093F90100BDE8F083774BDFE75605EED5F0
S214014F70FE22EBE71F78082F00F2D880DFE817F053
S214014F8009001F0041004C006900740096009E0055
S214014F90CD004C880A88E5060AD5120A02F00602F8
S214014FA042F0F002012119704263C1600120D9E785
S214014FB002F0FE02A10748BF42F00102F2E717061F
S214014FC007D5802100F50052D1634FF608721A808A
S214014FD062E05206EAD54A88E563D70604D502227E
S214014FE01A700B784363E1E7920765D507221A70BA
S214014FF01B7901EBC3010B89012BD7D10823C360B1
S214015000D4E71706DDD45206D0D54A88E56397075C
S21401501052D583F800C092E74C880A88E50643BF5C
S214015020120A02F0060242F0F00202F0FE026407E3
S21401503009D51C7942F0010201EBC4010989012955
S21401504004BF0821C160042119700123C3604263B3
S214015050ACE71706B5D45706A8D54A88E5635207C4
S2140150602AD507221A70A1E71A795F8801EBC20ECA
S214015070BEF80890B94511D80132D2B21A714F88DC
S214015080A3F8028017F0040FC3D1FF0702D4012A48
S2140150907FF655AF08221A700223B0E7DEF8042027
S2140150A0791C5980D25D42630622DBE7170688D455
S2140150B057067FF57BAFE5631E7040E794067FF5E4
S2140150C075AF456A214C46691A793440B4F5003FFC
S2140150D004BF466A4FF4005601EBC20100F50054C6
S2140150E00A8908BFE6632026E6635C88A24281BF80
S2140150F04968661C5E800D5559888A42CAD90424BF
S214015100012AC46004D9013A914201D10822C26041
S2140151101A78092A3FF41DAF48E7D2057FF546AF56
S2140151204FF4807100F50052D16310E74FF6093253
S2140151301A800EE76FF0030014E700BF0000015A63
S21401514000800650CC1C0020C01C0020200002005D
S2140151501C4B10B4984207D01B4B98422ED06FF0D0
S21401516003005DF8044B7047184B0269D20744BF31
S2140151702022C2604A88940702D50C89002CEED002
S214015180520702D50A8A002AE9D04FF480721A60C3
S214015190002299601A71C023C3604369DB050FD4EE
S2140151A0202200F50053DA63094A5DF8044BDA63FE
S2140151B0036C43F4FC630364FFF7AEBE054BD4E710
S2140151C0436AEAE70000015A00800650C01C00202E
S2140151D0FFFF1F00CC1C00204FF400120B4B10B534
S2140151E0C3F88020BFF34F8FBFF36F8F0024FF22D9
S2140151F0074B21465C6520209A625C60FFF712F936
S2140152002146BDE810402120FFF70CB900E100E07F
S21401521000000450044A054B002918BF134601221A
S21401522002FA00F018607047402004504010045005
S21401523010B5012104462020FFF7F4F801212120B2
S214015240FFF7F0F80122114B5A60227812069A6095
S2140152506178A27842EA01429A61FF229A620022AC
S2140152609A631A644FF000425A654FF0FF324FF4CA
S214015270001103F500531A65054AC2F88011E37858
S2140152801B01DBB282F81533116010BD000004501B
S21401529000E100E02DE9F04101250C46C3B2DFF83C
S2140152A088E0D1F800809D408F7ACB7A94F80DC0C3
S2140152B0097BCEF850500EF5005E4EF820804FF078
S2140152C0300E184E1B050EFB006043EA074343EA07
S2140152D0415322F00302C0F860C0C36502671DF0A7
S2140152E0A8FE736D2B437365237A13B1336C2B437E
S2140152F03364637A13B1B36B2B43B3632279A37917
S21401530043EA0243084A93616179E37943EA014338
S21401531006498B61034B55639D64BDE8F0411DF062
S2140153208EBE00BF00000450002004500010045040
S21401533010B50124C0B284401DF07BFE044B5A6DAB
S21401534022EA04025A659C62BDE810401DF077BE51
S2140153500000045010B50124C0B284401DF069FE5F
S214015360074BDA6A224209D15B6B34EA03030CBFAE
S214015370012400241DF063FE204610BD0024F9E739
S214015380000004504FF40032054B9A6641F6713224
S21401539003F51C33DA63012203F50053DA60704724
S2140153A00090005041F671320121064BDA6303F595
S2140153B00052D1600022DA634FF40032A3F51833AD
S2140153C09A66704700000350CB784A7810B55B01A7
S2140153D00C7843EA82030A79234343EA02130C2238
S2140153E0424302F1B0421363012C02BF8A78024B9A
S2140153F043F8202010BD00BFE880035008B54FF0E9
S214015400B0435A6802B960B15B680BB11DF03DFE4E
S2140154104FF0B04130B10120074B58601DF035FE0A
S214015420C86008BD1DF031FE0223CB601DF02DFEC5
S2140154300122024B5A60F4E7001000580020005881
S2140154404FF0B0435B6870B50BB11DF01EFE012135
S214015450104B4578596083780679002BC37814BFC2
S21401546002240024002B14BF042200224379DB000F
S21401547043EA06132B43234313434FF0B042936092
S214015480054B59600378002B14BF0B460223D360EB
S21401549070BD00BF00200058001000584FF4803245
S2140154A0064B5A6603F5E6235B69C3F385128270E1
S2140154B003F03F021B0B42700370704700900050D0
S2140154C0014B986CD96C70470080E00F024B18684E
S2140154D0C0F30740704700BF0080E00F0120034B78
S2140154E09B680A3303F01F03984070470080E00F63
S2140154F070B5054616461C4621B94FF420701DF0BE
S214015500B4FC0146402C1BD003D8DCB1202C1BD0A8
S21401551070BD602CFCD1042303FB06F2560806EB93
S2140155204113B3FBF2F3094A203B02EAC303AA681C
S21401553022F06002AA60AA681443AC60EB61E7E758
S2140155400623E9E71023E7E70823E5E7F8FF7F00EE
S214015550012200F5805310B55A6040F6AA6341F265
S2140155600502436100230E498360C365C26000F5EE
S21401557000520361C361C36491640A49836588422A
S21401558002D0094CA04207D18842036502D0064BDF
S214015590984201D1002343650123536010BD00BF2B
S2140155A0FFFF010000C005500000065070B50D4613
S2140155B0FFF7CEFF012300F580567360AB7C0446EF
S2140155C01BB1836843F080438360EB7C5BB1354A53
S2140155D02B7D944245D1A2F51032C2F88C31E36D91
S2140155E043F08003E3652A8A6B7B20461343EA89EE
S2140155F01343E3602B7BD5E90112FFF779FF6B7D3F
S2140156001BB1A36843F48033A360AB7D1BB1A368D1
S21401561043F40043A360EB7D2A7E1B07120502F4C8
S214015620E00203F0E0431343A365697E1D4A8B1E27
S214015630012B1D4B1FD894421BD002F58042944289
S2140156400CBF01224FF0FF3203EB4213022041F25E
S2140156501C620329985020D10423F3652B786361DB
S21401566070BD124A944204BFA2F52032C2F89C31A2
S214015670B5E70022E8E794420DD00C4A94420CBFED
S21401568001224FF0FF3203EB4213022042F21C626A
S21401569001299850DFE70022F5E7042204F50053BC
S2140156A0DA65DBE700C0055000C003500000065075
S2140156B038B50446054D28F033F80FCC0FC594E8ED
S2140156C0030085E80300002038BD00BFD81C002079
S2140156D047F6FF739A42F0B566D0012966D8344D75
S2140156E0CF0015F8313005EBC100012B847813D1BA
S2140156F00025C3781B1B9D4202D3E018C0B2F0BD43
S214015700591B4668A3EB510136F911609642D4BF86
S2140157100D4601F1FF33EEE740680028EFD0B0F9FF
S2140157200030934204DBB0F902309342B8BF13460F
S21401573082883D44FF2A19BFC8214FF0280CB0F9D2
S2140157400610B0F908C0A1EB03020CBF0126002623
S21401575092FBFCF26D78324412B2954201DD002ACA
S21401576001DA6A1E12B24FF47A7700EBC206F188AC
S214015770B668013213FB016112B221EAE1715C31B4
S2140157809542B1FBF7F104DD00EBC206B6888E4206
S214015790EBD200EBC20232F8040C884228BF08465E
S2140157A0A04238BF2046A9E7FF20A8E70020A6E7C9
S2140157B0D81C00200129F0B553D82B4800EBC104B2
S2140157C010F83110636801290FD1E078A47890426F
S2140157D094BFC4EB0001C4EB0201001BCAB28242B3
S2140157E0C8BF002233F91200F0BD002B39D0A178D2
S2140157F0914202D3B3F90200F6E7E178B3F900006B
S2140158009142F1D999886478A1F1FF06013C714271
S21401581003F10405E4B2714103F10C071FFA82FC9F
S214015820CEB2B44216D805EBC1014FF47A756A437D
S214015830B1F902404968521A04EBD47102EB6102D5
S21401584092FBF4F29042CFDBB3F902009042CBDC3C
S21401585010B2C9E737F831E04E1CE645E3D33146CE
S214015860DEE70248C0E700BFD81C00200080FFFF2B
S21401587008B50448FFF71CFFBDE80840012027F0E3
S21401588053BF00BF20F2030000487047C60C00203B
S2140158907FB50222084B0949CDE901234FF0007379
S2140158A0CDE90313052301A94FF0FF30059327F037
S2140158B071FF07B05DF804FB006A180000020400DF
S2140158C01B0603F0706300F00F000902034301F4A6
S2140158D07061120402F470220B431343014A1360F1
S2140158E0704700BF0020025C60B5054619B101395A
S2140158F0B1F5806F10D2094EF06810F48030FBD1FC
S21401590043EA0121120741EA050302F080521343DC
S21401591043F00043736060BD0120FCE70020025C99
S2140159200122054B9A60DA68D203FCD4D86820F0CD
S2140159300F000004000C70470020025C014B186841
S214015940704700BF0040025C014B5868704700BFBB
S2140159500010025C014B186B704700BF0010025C20
S214015960014B1868704700BF0010025C014B98603D
S214015970704700BF0010025C014B1864704700BFFF
S2140159800010025C014B5864704700BF0010025CB7
S214015990014B5863704700BF0010025C0022014BA8
S2140159A01A6070470010025C024A136843F0010354
S2140159B0136070470010025C43F20402014B1A6048
S2140159C0704700BF0010025C024A136843F03003C0
S2140159D0136070470010025C044B1A6842F4807230
S2140159E01A601A6822F480721A6070470010025C0E
S2140159F0024A136843F48063136070470010025C28
S214015A00034A136823F4702343EA0040106070478A
S214015A100010025C044B1A6902605A6942609A6976
S214015A208260DB69C36070470010025C0268044B49
S214015A301A6142685A6182689A61C268DA6170477F
S214015A400010025C024B1A6BD207FCD41862704736
S214015A500010025C024B186B00F00E00704700BF8E
S214015A600010025C82B01FB507930A9B04AC8B4200
S214015A7028BF0B4604E907001048D100079948BF24
S214015A8003330160099948BF23F0030323F07043F1
S214015A9001F0E041194341F000518160002102F01C
S214015AA0E042019C134343F00053C16004618361EB
S214015AB0416304B0BDE8104002B070470000025CCC
S214015AC03F22034B1A631022DA6103229A6370475E
S214015AD00000025C024AD36B9B07FCD4704700BFF0
S214015AE00000025C034B986A10F0240018BF0420E3
S214015AF0704700BF0000025C08B5FFF7F3FF064BD6
S214015B00DB6B23F47F4323F0EF0303431EBF012225
S214015B10024BC3F8FC2F08BD0000025C00F0FF3FFB
S214015B20032208B5054B186019615A63FFF7C8FFD1
S214015B30FFF7D0FFBDE80840FFF7DEBF0000025CBC
S214015B4042680346182A10B50AD0202A1DD0102A0A
S214015B502BD1174AD2F80424D4010AD4012013E029
S214015B60134AD2F804249001F8D50A6842F00802D4
S214015B700A6010481A6882424FF000000ED10A6887
S214015B8042F040020A60586010BD094AD2F8042467
S214015B905201E3D50A6842F00402E9E7064CA24244
S214015BA0F2D10A6842F08002ECE70720ECE700BF7A
S214015BB00000025CDB290020DC2900200B4607B52B
S214015BC00749D1F80414C90708D5002100920246F6
S214015BD0084600F05BF803B05DF804FB0120FAE725
S214015BE00000025C1346064AD2F80424D20504D506
S214015BF00A46014600201DF0BFBC0120704700BFC9
S214015C000000025C13B5084CD4F80444E40508D53A
S214015C10009313460A460146002000F061F802B0E0
S214015C2010BD0120FBE700BF0000025C13B5084C65
S214015C30D4F80444E40508D5009313460A46014601
S214015C40002000F071F802B010BD0120FBE700BF94
S214015C500000025C70B504460D4616468CB00A4A32
S214015C6009AB07CA83E807001A462146CDE9056352
S214015C70CDE90333CDE9013300954FF480301DF0B3
S214015C809FFB0CB070BD00BFC0E90300F0B51C4619
S214015C905B6815468DB01A07129E1AD1CBB1726891
S214015CA0934216D10C4B0D4A53F8217009AB07CA23
S214015CB083E807001A462946CDE90533CDE90333C3
S214015CC0CDE90163009447F480701DF079FB0DB0B7
S214015CD0F0BD0720FBE700BFCCE90300C0E90300E5
S214015CE0F0B516465A688DB0102A0D46129F15D18A
S214015CF07A68102A12D10A4A09AC07CA84E8070052
S214015D0022462946CDE90547CDE90344CDE90144BC
S214015D10044800961DF054FB0DB0F0BD0720FBE7CC
S214015D20C0E9030030000100F0B516465A688DB090
S214015D30102A0D46129F15D17A68102A12D10A4AE6
S214015D4009AC07CA84E8070022462946CDE905744E
S214015D50CDE90344CDE90144044800961DF030FB2B
S214015D600DB0F0BD0720FBE7C0E9030010000100FD
S214015D7082B070B586B0149D03AE202D86E807006C
S214015D800B9359D805EB85038B4203D006236B434F
S214015D908B4253D10C9BAB4250D10F9BB3EB450FBB
S214015DA04CD1129A934249D1012229462220159BB1
S214015DB0FFF79AFD044630BB034606220E210C204F
S214015DC0FFF77EFD0123CDE900332B4696E8070059
S214015DD01DF093FA0E230BAA009307CA2B461DF05B
S214015DE0D7F90C23164C00930EAA2B4607CA1DF0B2
S214015DF0FFF9636823F07F0343F026036360FFF730
S214015E008FFD30B10624204606B0BDE8704002B0D2
S214015E107047636823F07F0343F022036360FFF754
S214015E207FFD04460028EDD1062311AA009307CA78
S214015E302B461DF010FAE6E70124E4E70724E2E723
S214015E400020025C70B598B0002843D02C4C08ADF9
S214015E500FCC0FC50FCC0FC50FCC0FC594E80F00A4
S214015E6085E80F006D4604AE04F1100320340FCB15
S214015E7085E80F0094E80F0086E80F00FFF7ACFDF9
S214015E800420FFF7BDFDFFF797FD3046FFF7CEFD77
S214015E90002408AE56F8040B0134FFF7D3FD102C8E
S214015EA0F8D1FFF751FD0328FBD90024FFF776FD53
S214015EB02646FFF743FD55F8043B01365840042EAD
S214015EC044EA0004F5D12CB1012206200D4B1A70CC
S214015ED018B070BDFFF780FD0820FFF747FD0020D2
S214015EE0FFF74AFD0720FFF74DFD4FF40070FFF75F
S214015EF04FFD0820FFF784FDFFF756FD0020E7E77A
S214015F00A8EA0300DE29002008B5FFF765FD012297
S214015F10014B1A7008BD00BFDD29002030B589B0DD
S214015F2005AC84E80700FFF715FDC30501D5FFF7AB
S214015F30EBFF0A4D2B781BB11DF099FC00232B704B
S214015F40074B069AD3E901018DE8030002921B680C
S214015F5094E807001DF094FB09B030BDDD29002050
S214015F6008EB03001FB51DF082FC044630B1012288
S214015F7006240D4B1A70204604B010BDFFF7DEFC58
S214015F800090FFF7DBFC0190FFF7D8FC0290FFF7CB
S214015F90D5FC03906846FFF749FDFFF7B5FFFFF70D
S214015FA013FDFFF725FDE6E7DE29002005289ABF49
S214015FB0014B185C0020704714EB030030B5154BFD
S214015FC087B00293144B0390049346F611030D46D3
S214015FD0059300F06DF91428044616D168461DF0A5
S214015FE0FEFC4FF0A843032202A95A6319601D6103
S214015FF09A63DA6B9207FCD1142C02D168461DF025
S214016000FCFC00F089F9044601E00028E9D02046AE
S21401601007B030BDF01C0020040000202DE9F04F31
S214016020B1B005468C46E9466E4F3B9EDDF8F8E07A
S214016030409C07F1100AC846386879680837A8E80E
S21401604003005745C146F6D10EEB0208C8F1000918
S21401605009F00F09002E00F0AF80774207F00F0716
S2140160600121DDF8FCB0C4F1100ACDF810B005919D
S21401607044F0005106914FEA0A2101F4F85141F02B
S2140160802101079106B96B460893002D40F09680D2
S214016090002C00F0938004AB0993002E00F0908052
S2140160A046F000530A93002D40F08D80002C14BF5B
S2140160B00123212343EA07230B9308A942F0005347
S2140160C0CDF830C03D980D910E934FEA092343F069
S2140160D041030F93109002B10CA9002A16BF0022AB
S2140160E04FF00052412342EA0E021191129213938D
S2140160F03C9B3D4A149310AB15933C4B00211693E1
S21401610040F6110317933A4B002D08BF1346189318
S21401611014AB1993374B10221A9311231B931CAB04
S214016120184627F0F9FF01221D924AF080421E927E
S21401613000220346239205B9EB46102C08BF012323
S2140161400DF1900A102200215046CDF880B021931F
S214016150229427F0E1FF002C37D020AB00212593B5
S2140161608F4218BF534647F0804226923A9A2CA88F
S2140161708A422892299313460CBF4FF080430B4660
S214016180102233432B912A9327F0C6FFFEB95346BC
S214016190C8442D932CA948F0804318A82E93FFF7E6
S2140161A00DFF30B92DB90346A34212D1002818BFFE
S2140161B02C2031B0BDE8F08F102751E701236BE7A3
S2140161C047F000536EE7212374E70123C6E728ABA7
S2140161D0DEE703F1C0026A4412F8C02C0133104313
S2140161E0E2E700BF1AEB03002CEB030010000020CF
S2140161F030EB030004000020F0B5C0299FB0249EB8
S2140162004FD0B1F5807F04D0802941D029201FB01E
S214016210F0BD40F2344440F21445002E08BF2C462F
S21401622021271025019401240296039404950597CD
S214016230259F069706B102AC079401240895099498
S2140162400A9221220B940C950D92174A0AAC0E92D3
S214016250164A0F94109242F6110211921293139459
S2140162601495159201AA1692CBB112AB179304237B
S21401627018931123199316AB1A901B9340F611032A
S214016280C9081C911AA806A91D93FFF797FEBEE739
S214016290002E14BF4FF486644FF48264C0E70EAB41
S2140162A0E4E70F20B3E700BF34EB03001000001053
S2140162B038B5164B5A6E42F004025A66D3F880225D
S2140162C042F00102C3F88022114B5B68C3F3080356
S2140162D043B14FF0A842D36B13F0430FFBD1142404
S2140162E0204638BD4FF0A843DC6B14F04304FBD1C5
S2140162F0084D2B681BB90421284602F04BFD2B687C
S214016300013343F000432B60EAE700BF00800050F2
S21401631000ED00E0F01C0020014B00205B68704798
S21401632000ED00E04FF40052034B00209A66032272
S214016330C3F86022704700BF0090005008B5FFF711
S2140163400FFBC30708D5FFF785FB062804D00A28EC
S214016350F5D1FFF7D9FDF2E74FF40052034B0020C9
S2140163609A660322C3F8602208BD00BF00A0005051
S2140163701FB54FF40052164B9A660322C3F86022EB
S214016380FFF7EEFAC30710D401201DF07DFA0028AE
S21401639014BF6FF092040024FFF7D0FF00280CBF53
S2140163A020466FF0920004B010BD1022002168460E
S2140163B027F0B2FE6846FFF72DFBDDE900321343F6
S2140163C0029A1343039A1343DED00024E4E700BF86
S2140163D000900050012300F01F02A0F50620094995
S2140163E0A0F550604009934051F820201A4341F827
S2140163F02020054951F8202022EA030341F82030E5
S214016400704700BFF41C0020081D00200121A0F5E4
S21401641006230F4AA3F550635B0900F01F0001FA3B
S21401642000F052F8231008430A4942F82300D1E944
S2140164300030034488680344C868096903445B184C
S21401644002BFC2E90033C2E902331361704700BFDD
S214016450081D0020F41C00202DE9F04FA9B002927F
S2140164601F46DDE9328904460822CDE90301414091
S21401647021FA02F34B40980702F1080218BF9B006D
S214016480202A1C44F4D18123B4FBF3F303EBC3139A
S214016490E41A784B04F506241B7804F55064002BA7
S2140164A03CD1FDF7C5FD014620B16FF0910029B042
S2140164B0BDE8F08F4022059008A827F02DFE402267
S2140164C0059918A827F028FE6B4EDFF8C4A13346BD
S2140164D003F10F0B102208A9DAF80000CDF800B07E
S2140164E0059326F0BAFE00220146059B103608AD3C
S2140164F0914244D1CDF800B01022DAF8000018A974
S21401650026F0B4FE4FF0000B034618AD5B4542D1B2
S2140165105A4B9E42DBD10122564B1A70812500262A
S214016520DFF86CA1A4F50623554AA3F550635B0971
S21401653052F8232004F01F01CA40D2073ED4514A24
S21401654052F82300C84010F001002DD0002E08BFDD
S21401655026468123A4F50724A4F2FF44B4FBF3F3F3
S21401656003EBC313E41A04F50624013D04F5506455
S214016570D8D1029BD3B1CEB1349B1E6063E055F8EF
S214016580040BCDE906230591FFF724FF069A079B26
S21401659005990132ACE755F8040B05930BF1010B95
S2140165A0FFF734FF059BB1E7029B13B96FF08B0031
S2140165B07DE7349B002E45D01E6078E7B8F1000FCA
S2140165C002D00023C8F80030B9F1000F02D0002332
S2140165D0C9F800304FF0100B00233A462146DAF88E
S2140165E00000CDF800B013F043FB70BBB8F1000F0C
S2140165F001D0C8F800B03B68234A93422FD1B8F1C6
S214016600000F11D0B9F1000F0ED04B462146DAF833
S214016610000018AA13F080FBB8B9D9F80030D8F8F2
S21401662000209B1AC9F80030D7E90223DDE90310E0
S214016630834208BF8A428CD1029B13B17B68012B2F
S21401664015D0349B1C60002031E7104B984206D0D1
S2140166501233984203D0133B9842E5D025E72146F2
S214016660DAF8000013F09EFB0028DDD09EE76FF0FD
S21401667084001CE7DF290020006D08000071080077
S214016680F41C0020081D0020105D175EFFDF00F0DF
S214016690E00A00202DE9F04F87B0824689469846E9
S2140166A01646DDF840B02AB1002B4ED040F26C738E
S2140166B09A424DD8BBF1010F4DD8002406F11007C0
S2140166C03946012005941DF01EFD0546002845D0DB
S2140166D021463A4627F020FD05ABCDE9014300945B
S2140166E02B46012250464946FFF7B6FE044680B1C6
S2140166F010F18C0F08BF6FF08D043A460021284632
S21401670027F00AFD28461DF00FFD204607B0BDE81C
S214016710F08F144BC5E902A92B60C5F804B02EB161
S2140167203246414605F1100027F0CFFC0E483B46A5
S2140167302A460599006813F003FA18B90598FFF779
S21401674049FEDAE76FF09104D7E76FF08604DCE7DD
S2140167506FF09104D9E76FF08504D6E76FF08C04EB
S214016760D3E700BF105D175EE00A00202DE9F04375
S2140167708DB08146DDE914780C4615461E469BB160
S214016780B8F1000F05D16FF0860420460DB0BDE8C4
S214016790F083002FF7D0B7F1005FF4D3C3F10053B5
S2140167A003F500439F42EED81022002108A827F0E7
S2140167B0B3FC002207AB029305AB019306AB21465F
S2140167C00093484608ABCDE90522FFF745FE04468F
S2140167D00028DAD10599DEB1A94203D80029D2D121
S2140167E015B1D0E70029FBD0491BB14228BF31467D
S2140167F0069B0948C8F8001000913A4607990068B8
S2140168002B4413F035FA002818BF6FF09104BCE74B
S214016810A942E9D2B7E700BFE00A002030B58DB043
S2140168200C4605461022002108A827F075FC002218
S21401683007AB029305AB019306AB214600932846AE
S21401684008ABCDE90522FFF707FE0446D0B9099B40
S214016850012B1AD0104B0799186813F0A3FAB8B990
S214016860012207980D49A0F50623A3F550635B099D
S21401687000F01F05AA4051F823506A4041F8232032
S214016880FFF7C4FD20460DB030BD6FF08404F9E774
S2140168906FF09104F6E700BFE00A0020F41C002028
S2140168A02DE9F0438BB01746DDE91545DDE91326E2
S2140168B09C46DDE91738894621B96FF086000BB092
S2140168C0BDE8F083002FF8D00EB9002CF5D112994F
S2140168D009B9002AF1D10DB9002BEED1B8F1000F9C
S2140168E0EBD0254A944544D10288B2F5105F40D1D9
S2140168F04288B7EBD20FE0D322F04001802902D0C4
S214016900B2F5807FD9D11CB92046C8F80040D6E739
S214016910AE421CD23219954219D29C42CDD831468C
S2140169202246284627F0DEFB2E4614F00F03C4D17C
S214016930CDE90197CDE90336CDE90543CDE9075405
S2140169400993FFF7EFFC38B16FF09200B7E79C426E
S214016950EBD96FF08900B2E707AA04A901A8FFF7EF
S2140169602DF90546FFF7EAFC2843EDD1C8F80040AB
S214016970A5E76FF08500A2E7004440042DE9F04F3B
S214016980A9B0834617469A460E46DDF8C890DDF84C
S214016990D88029B96FF08603184629B0BDE8F08F74
S2140169A0002AF7D0B9F1000FF4D0349B002BF1D0B8
S2140169B0B8F1000FEED00024434B0CAD93E807006E
S2140169C085E807003C22214619A8189427F0A4FB65
S2140169D03288718802F4E040B0F5804FDAD03B4E41
S2140169E03B480BEA060646F01066864265D1B1F5CD
S2140169F0807F62D147F212118A425ED10620354964
S214016A00BAF11F0F0A69CB6800FB02F209680B9303
S214016A10CDE90C120E94BDD9339B402BBAD9359BC8
S214016A201F2B4DD909F1010220261292402299F816
S214016A3000300F97042B18AFCDE91324CDE915725A
S214016A40109611941794A5D1FFF76CFC0346002805
S214016A50A2D10B9B15AACDE9086305AB07CA83E84B
S214016A60070002AB12AA07CA83E80700DDE9100196
S214016A708DE803000F9B95E80700FFF779F90546B7
S214016A80FFF75CFC55EA000384D13D46349A20AEFC
S214016A902C4603CCB44210605160254602F1080230
S214016AA0F6D100221046B9180132412A03D120221C
S214016AB0C8F8002070E70870F5E76FF085036BE70C
S214016AC06FF0890368E700BFC0E903000000FFF626
S214016AD00000020994EA0300F0B50F461D468DB08A
S214016AE000285AD0002958D0002A56D0002B54D05E
S214016AF00388B0F802C0194603F44F44B4F5824F38
S214016B0018BF002321F0FF01B1F5E24FDBB203D03D
S214016B106FF085000DB0F0BD122B01D0172BF7D109
S214016B200CF10701B2EBD10F4FEAD10638D31F4A59
S214016B3006ACBCF5807F07CA84E80700E8D1122BB3
S214016B4007D11B4B1A691B681344CDE90632002393
S214016B5008930023CDE909760B93FFF709FC00287B
S214016B60D8D1FFF7DFFB0028D4D1124B114905938A
S214016B7002AB049083E803000CAB13E903008DE835
S214016B800300099B94E807001CF000FD0446FFF78C
S214016B90D5FB204307D12E60BCE76FF08600B9E72E
S214016BA06FF08900B6E76FF09200B3E7C0E9030023
S214016BB094EA0300A93803002DE9F0438FB01D467F
S214016BC0DDE916C6002863D0002961D0002A5FD00F
S214016BD0002B5DD0BCF1000F5AD0002E58D0038890
S214016BE0B0F802E01C4603F44F47B7F5824F18BFD2
S214016BF0002324F0FF00B0F5824FDBB24ED0B7F58C
S214016C00824F4BD1122B01D0172B47D10EF1070023
S214016C10B2EBD00F4FEAD0083AD34FEA4802571CDE
S214016C20674538D8BEF5807F38D1122B18BF4FF094
S214016C3000094FF0000308BF1B4CCDE9081805F109
S214016C40010114BF4C46D4F80C90CDE90B120A93FF
S214016C500D93FFF767FBC0B9CDE9058902AB08AA1A
S214016C6007CA83E807000EAB13E903008DE80300AB
S214016C700B9B94E807001CF0A8FC0446FFF75EFB9C
S214016C8020430ED104232B7037600FB0BDE8F0838C
S214016C906FF08600F9E76FF08900F6E76FF0850080
S214016CA0F3E76FF09200F0E794EA03002DE9F04372
S214016CB089B00D4614461F46DDF8488020B96FF0AE
S214016CC0860009B0BDE8F0830029F8D0002AF6D086
S214016CD0B8F1000FF3D0028802F44F43B3F5824FA8
S214016CE00CBF13460023DBB202D06FF08500E8E745
S214016CF0122B01D0172BF8D122F0FF02B2F5E24F8A
S214016D0040D14288C8F80020002A36D1E200C8F8EF
S214016D100020D8F80020B2F5807FE6D1122B09BFFB
S214016D20384B00221A681B6905EB040608BFD21807
S214016D3000231846224412F801CD16F8011D084317
S214016D40B1EB0C010CBF4FF0FF3C4FF0000CB5420D
S214016D500CEA030343EA0103EDD10028AFD0002B70
S214016D60ADDA109B9C4249D822462946384627F080
S214016D70ACF9119B00201C60A3E70732B4EBD20FDD
S214016D80C7D09CE72A78042A99D1621ED2005208FD
S214016D90B2F5807FC8F80020A7D1122B05F10103B8
S214016DA018BF4FF000094FF0400205934FF0000363
S214016DB00ABF144E4E46D6F80C90CDE90623FFF7CF
S214016DC0B1FA00287FF47DAFCDF80C90D8F80030EA
S214016DD00733DB08029308AB13E903008DE80300D1
S214016DE0059B96E807001CF099FC0646FFF7A6FAF5
S214016DF000287FF466AF002EB3D060E76FF08900FD
S214016E005FE700BF94EA03002DE9F04F8FB0054617
S214016E10DDE918A993461E46DDF868801C9F09B374
S214016E2000B3B8F1000F1DD0E7B1BAF1000F02D1DF
S214016E30B9F1000F16D1284B26F47E129A4247D19B
S214016E4028461CF00BFE0446B0BB6B88BBEBD30F89
S214016E504FEAD30206D316F47C1FC6F3054504D0C9
S214016E60102D03D96FF0860426E010251B9B9D424A
S214016E702BD80023CDE901121022CDE905930DF19F
S214016E802809CDE9033ACDE90823CDF81C90FFF790
S214016E9049FA044680B907AA04A901A8FEF7A2FE8A
S214016EA00646FFF74BFA044656B958B92A464946EC
S214016EB0404627F00AF93D6020460FB0BDE8F08F46
S214016EC06FF0920400233B60F6E76FF08904F3E766
S214016ED06FF08504F0E700BF0002C0032DE9F04122
S214016EE0069F0C461646054610B309B302B9FBB910
S214016EF06288B3EBD20F4FEAD20819D34C22002195
S214016F00284627F009F90D4B27F47E129A4212D132
S214016F1020461CF0A3FD044638B942463146281DDA
S214016F2027F0D3F8C5F824802F602046BDE8F0810D
S214016F306FF08604F9E76FF08504F6E70002C003F8
S214016F402DE9F0410E4614460546002840D000299A
S214016F503ED012B90020BDE8F08103681F4823F433
S214016F607E13834237D1AF6BE7B1C7F1100807F143
S214016F7028004245284404D227F0A7F83C44AC63D5
S214016F80E8E7424627F0A1F81022103C3C19AA6314
S214016F90E0D0284605F128011CF07CFD0028DAD156
S214016FA04644A863102C0CD9671E27F00F073A46F3
S214016FB0314628461CF06EFD0028CCD1E41BC9D012
S214016FC03E442246314605F1280027F07EF8D6E7F2
S214016FD06FF08600BFE76FF08800BCE70002C003D1
S214016FE02DE9F04388461F4605468BB070B169B15E
S214016FF063B10368234923F47E1088423ED113F41B
S2140170007C1FC3F3054604D0102E03D96FF0860407
S2140170102AE0102696422BD8FFF784F9044618BBBF
S214017020AB6B05F12802CDE901236B6A2A1DCDE978
S21401703004231023CDE9083007AB1A4603900690C7
S21401704005F13C0901A904A8CDF81C90FEF7EEFD58
S2140170500546FFF773F904466DB928B93246494625
S214017060404627F032F83E6020460BB0BDE8F0837C
S2140170706FF08904F8E76FF09204F5E76FF0850486
S214017080F2E700BF0002C00307B56B46054A106869
S214017090516803C36846FDF75FFE002003B05DF844
S2140170A004FB00BF38EB030013B50024064A68460C
S2140170B0536F43F00103536700948DF80440FDF7C6
S2140170C081FD204602B010BD0040005030B58BB0A7
S2140170D06C46174D0FCD0FC40FCD0FC495E80300B6
S2140170E084E80300134BD3F84C21120318D4D3F8C9
S2140170F05041E4B28DF81940FDF782FB204480F33D
S21401710008008DF818000C48FCF764FC6846FDF78B
S21401711093FA4FF4FA70FDF7E7FB00200BB030BD91
S214017120064B1C884FF6FF739C4208BF8C24E1E790
S21401713040EB03000080E00F00F049020001E00F81
S21401714030B5094D87B001AC0FCD0FC42B6801A82F
S214017150236019238DF80530FDF782FB6420FDF7C7
S214017160BDFB002007B030BD68EB03006FF00402E2
S214017170502110B50A480B4C12F0800FD3B21BBF3A
S21401718003F00F03043BA3181B1802F101020CBF06
S21401719083F800131976402AEED1002010BD00BFF7
S2140171A000ED00E000E100E010B504461BF03AFFF8
S2140171B0024B1C601BF03AFF002010BD1C1D002076
S2140171C010B51BF02FFF034B1C681BF02FFF20464A
S2140171D010BD00BF1C1D0020034B022218680023AF
S2140171E0806819461AF096BCE40B002030B51446A8
S2140171F0054687B010461CF057FD63690246834278
S2140172003CBFD4E903315B181B1A7BB10F492846F2
S21401721003910021CDE90131012304940093D4E9BF
S21401722000131BF0CBFD002007B030BD01226276B3
S21401723094F82D20002AF6D084F835301321E3691E
S214017240204698472046636A9847ECE7ED710100AF
S2140172502DE9F04788B004468846174699461BF044
S214017260E8FE8246002F7AD0237E03F0FF02002B31
S21401727000F0A28020461CF017FD6669B04205D1D9
S214017280637ED4E903521544AD1B01E0F9D9851B91
S214017290BD4228BF3D461BF0CCFE94F82D30064675
S2140172A0002B6DD12A464046616926F00EFF6369C0
S2140172B02F462B44636121E0037803F0FD01112979
S2140172C05BD1216B814205D1A3F111014B424B41A8
S2140172D084F83430013F6369216B01328B4203F13C
S2140172E0010308BF2363636195426069E4D1D4E971
S2140172F00323216B1344994200D122630025D4E96C
S214017300032361691344994208BF6261207A657656
S214017310FCF7AAFD20461CF0C7FC6369834232D104
S214017320257694F82D30E568656103B1256320461E
S214017330636A9847214B2A460393002302932369E5
S214017340216801930123207A0093049463681BF05B
S21401735035FD207AFCF7A8FD30461BF070FE50463E
S214017360C9F800701BF06BFED9F80030002B0CBF7B
S2140173701B20002008B0BDE8F08708F8013BAAE70B
S2140173802F460022B0E70123207A23760DF11E0155
S214017390FCF7F2FD9DF81E30002BDAD00DF11F012F
S2140173A0207AFCF7C1FD9DF81F100029D1D1224695
S2140173B0207AFFF71BFFCCE71746D0E7ED710100F7
S2140173C0002808DB0123420900F01F0003FA00F041
S2140173D0014B43F82200704700E100E0002809DB7A
S2140173E00122430900F01F0002FA00F0024A60334E
S2140173F042F82300704700BF00E100E070B5044684
S2140174000568FFF7DDFE844202D10020FFF7CCFEBF
S21401741095F93600FFF7E2FF95F93630002B0DDBC4
S21401742001215A0903F01F0301FA03F31849203218
S21401743041F82230BFF34F8FBFF36F8F95F93700B6
S214017440FFF7CCFF95F93730002B0DDB01215A09E8
S21401745003F01F0301FA03F30D49203241F82230ED
S214017460BFF34F8FBFF36F8F287AFCF73DFD287A65
S214017470FCF7A0FCFCF77CFC00232846C4E900339B
S214017480C4E90433A360AB6ABDE87040184700BF87
S21401749000E100E02DE9F0410C461546064686B0AF
S2140174A04022002120461F4626F036FE95E80300BE
S2140174B000232A692376EB6884E80300C4E90423E1
S2140174C02A7DE36084F82C20AA7D2363012384F8B7
S2140174D0343084F835300C9B84F82D2023620D9BC4
S2140174E0E76163620E9BA3622B7A84F836306B7A6F
S2140174F084F837302D4B346073602D4BB3602D4BC1
S21401750033612D4B73612D4BF360FCF779FC38B179
S2140175102B4B984204D01024204606B0BDE8F081DB
S214017520002104F10800FCF7F3FB07460028F2D11E
S2140175304FF00108234B3362234B84F83C80B36140
S214017540224BF3619DF8403084F8390084F83B30D3
S2140175509DF83C30204684F83A30697D84F83880BE
S2140175601CF0B2FB95F90900FFF738FF95F9090001
S214017570FFF726FF164B0494CDE902732369CDE984
S21401758000836368E2682168207A1BF017FC0446D2
S2140175900028C0D195F90800FFF720FF95F90800EB
S2140175A0FFF70EFF3046FFF7FFFDB5E7193D030075
S2140175B051720100973C03009D3C0300FD730100DE
S2140175C0038000F06D3C0300C93C0300A33C0300AC
S2140175D0ED7101002DE9F04101271C46594B86B09B
S2140175E00293594B0C9D0193584B904600930A46C3
S2140175F0CDE903772946564BFFF74CFF0646002890
S2140176007BD1236839462B6463683A206B64637ABE
S21401761085F84930237A85F84830E37A85F84B3087
S214017620A37A85F84A30637B85F84D30237B85F84D
S2140176304C30E37B85F84F30A37B85F84E30FCF762
S214017640F1FE3B460422617A207AFDF7C3FB3B46F6
S2140176500222E17AA07AFDF7BDFB39466068FCF7A5
S214017660E1FE88F8006041462068FDF79FFF14227E
S214017670637C5B0103F1A04303F57033C3F81C265A
S214017680617A227A42EA0142C3F83426E17AA27A82
S21401769042EA0142C3F82C2685F8506098F8193062
S2140176A0032B4DD8DFE803F01A022D4701230027EC
S2140176B085F8503000230222617B207BFDF78AFB90
S2140176C0637B227B617C42EA0342224B49015A508A
S2140176D00422236803F58053DA65AFB9237A2A6C4E
S2140176E085F84830637A052185F84930D36C2068DF
S2140176F043F00403D3641BF02BFD304606B0BDE80F
S214017700F081022385F8503000230422E17BA07B20
S214017710FDF760FB022741F21C61627C0E4B03EB16
S21401772042104750E07BA17BB13241EA004103EBB6
S21401773042139960D2E70323012785F85030B9E751
S2140177402326DAE7433E0300373E0300CF3E03001D
S214017750C33E030024D6035000C00350BFF35F8F1F
S214017760074B5A6A22F480325A62D3F8942022F0E8
S2140177700102C3F89420BFF34F8FBFF36F8F70479A
S21401778000ED00E070B52648264CFFF7E7FF84427F
S21401779008BF4FF08043244A18BF20F01F03D2F8D9
S2140177A0C01018BF203B21F0FF0141F0A001B3F14A
S2140177B0005FC2F8C0100CD31C4D1D4E296843F063
S2140177C00103C2F898100131C2F89C60C2F8A030DB
S2140177D02960844210D01548164B0268124923F0DE
S2140177E01F0343F00303C1F89820C1F89C30124BE5
S2140177F00132C1F8A0300260BFF35F8F05220A4B49
S214017800C3F894205A6A42F480325A62BFF34F8F0B
S214017810BFF36F8FBFF34F8FBFF36F8F70BD00BF86
S214017820F80C0020D00E002000ED00E0201D002006
S21401783003000020EF0E0020E1FFFF3F10B51446C5
S214017840FFF78CFF1F2C24D91C4A1D4CD2F8C030E0
S21401785023F47F4343F48073C2F8C030C2061CBFD2
S21401786020F01F002030CB06144A236818BF21F0F1
S2140178701F0120F01F0021F01F01C2F8983040F0D0
S214017880030041F003010133C2F89C00C2F8A010C6
S2140178902360BFF35F8F0522084BC3F894205A6A12
S2140178A042F480325A62BFF34F8FBFF36F8FBFF33C
S2140178B04F8FBFF36F8F002010BD00BF00ED00E0BB
S2140178C0201D0020BFF34F8F0549064BCA6802F4FE
