:1000000000100020F51700003F8000003F80000036
:100010003F8000003F8000003F8000003F800000E4
:100020003F8000003F8000003F8000003F800000D4
:100030003F8000003F8000003F8000003F800000C4
:100040003F8000003F8000003F8000003F800000B4
:100050003F8000003F8000003F800000D111000081
:100060003F8000003F8000003F8000003F80000094
:10007000A15200003F8000003F80000041170000B7
:10008000237F00003F8000003F8000003F80000091
:100090003F800000D11E00003F8000003F80000034
:1000A0003F8000003F8000003F8000003F80000054
:1000B0003F8000003F8000003F8000003F80000044
:1000C0003F8000003F8000003F8000003F80000034
:1000D0003F8000003F8000003F8000003F80000024
:1000E0003F8000003F8000003F8000003F80000014
:1000F0003F8000003F8000003F8000003F80000004
:100100003F8000003F8000003F8000003F800000F3
:100110003F8000003F8000003F8000003F800000E3
:100120003F8000003F8000003F8000003F800000D3
:100130003F8000003F8000003F8000003F800000C3
:10014000F0B515A3D3E900238DB0044603A8CDE98B
:10015000062313A3D3E90023CDE9082312A3D3E98F
:100160000023CDE90A2307F0C4FD03AD06AE04F178
:10017000180755F8040BF6E80223CDE9002305F033
:1001800013FADDE9002305F079FAE4E80201BC4244
:10019000EFD10DB0F0BD00BF9F27F96C78D56E3F51
:1001A0000E7F8FF27ACD6E3F200FD8309E9C6C3F31
:1001B0002DE9F04F2DED028BAB4CAC4D204687B0B6
:1001C000FFF7BEFF2B78AA4A002B29D0D4E900AB59
:1001D000D4E90289D4E904671368A649581D01EBE4
:1001E000C001C1E900ABA44901EBC001C1E900892C
:1001F000A24901EBC001C1E90067A14901EBC301BC
:10020000C1E900AB9F4901EBC301C1E900899E49E7
:1002100001EBC301C1E900670021013329701360BC
:100220001368042B40F39F80924E984C944D0FCC52
:100230000FC60FCC0FC694E80300A4F1200786E890
:1002400003000FCD0FC70FCD0FC795E8030084E85B
:100250000300894F8E4C8B4D0FCC0FC70FCC0FC7AF
:1002600094E80300A4F1200C87E803000FCDACE86C
:100270000F000FCDACE80F0095E8030084E8030001
:100280007E4D844CDFF834A20FCC0FC50FCC0FC5C8
:1002900094E8030085E803007B4DA4F1200C0FCD0A
:1002A000ACE80F000FCDACE80F0095E8030084E840
:1002B0000300A6F120000A2107F03FFDA6F120006F
:1002C0000A2155EC104B07F0DCFDA6F120000A21B5
:1002D0008DED000B07F0E5FDA6F120000A218DED64
:1002E000020B07F076FDA7F120000A21B0EE408A4C
:1002F000F0EE608A07F06DFDA6F120000A2159ECAE
:10030000108B07F03CFD48A3D3E900232046294683
:100310008DED040B05F02EFC5F4F604E604D614C7F
:10032000002875D042A3D3E9002351EC180B05F047
:1003300021FC48B340A3D3E90023DDE9040105F023
:1003400019FCA8B10023CAF800303B6033602B6071
:1003500023680133032B236002DD534806F0E8F9DC
:100360000022434B1A6007B0BDEC028BBDE8F08F52
:100370003368CAF800000133032B3860336028600B
:100380002060EDDD4948E9E72DA3D3E90023DDE94D
:10039000020105F0EFFB002834D02BA3D3E90023A2
:1003A0004046494605F0E6FBB0B129A3D3E9002356
:1003B0004046494605F0DEFB0028C3D10022DAF8AA
:1003C00000303A600133032BCAF8003032602A60F3
:1003D0002260C5DD3648C1E751EC180B1EA3D3E9F6
:1003E000002305F0C7FB0028E8D100223B68CAF8CB
:1003F00000200133032B3B6032602A602260AFDDB6
:100400002C48ABE716A3D3E90023DDE90001E8E7B8
:100410002B68CAF800000133022B386030602B6073
:1004200020609DDD244899E717D9CEF753E3D5BF67
:100430009A9999999999A93FF0A7C64B3789ED3FA9
:100440008FC2F5285C8FDA3F4E62105839B4D83F1E
:100450007B14AE47E17A943FFED478E92631D03F51
:10046000EC51B81E85EBE53F08140020061700206C
:100470003C1400202812002078120020C81200200E
:1004800090130020B8130020E01300201813002060
:100490004013002068130020401400204C1400205A
:1004A0004414002048140020A78C0000AF8C0000EA
:1004B000B88C0000C08C0000C88C000050140020D4
:1004C0002DE9F04F456A044610EE10AA2DED048B7D
:1004D00093B057EC106BDDF88080BB460691099213
:1004E0000C9375B9102006F073FC0246606220B9C7
:1004F000A74BEA21A74807F00BFAC0E901550560B0
:10050000C560636A196851B15A6801232046934057
:100510004A608B6006F0A4FC636A00221A603B1EEE
:10052000ADBF0023012223F0004BC8F800309A4BE6
:10053000B8BFC8F8002033EA0B031BD142F20F7397
:100540000C9A1360CBF31303334300F08F85219B88
:1005500063B9924B22E0924B01930833219A1360C6
:10056000019813B0BDEC048BBDE8F08F8B4B019369
:100570000333F3E7002200235046594605F0E6FA1C
:1005800080464BEC19AB58B101230C9A1360219BA8
:10059000002B00F0688583481860431E0193DFE755
:1005A000CBF30A5510AA11A920464BEC10AB06F06C
:1005B000D9FE08EE100A002D00F0828019EE903A64
:1005C0005646A5F2FF35CDF83880C3F3130343F048
:1005D0007F5747F440170022734B3046394604F0EA
:1005E00095FE65A3D3E9002305F048F864A3D3E999
:1005F000002304F08DFE06460F46284604F0D4FF83
:1006000061A3D3E9002305F039F802460B463046D2
:10061000394604F07DFE06460F4607F031FB002206
:10062000009000233046394605F09AFA50B1009800
:1006300004F0BAFF32463B4605F088FA10B9009B39
:10064000013B0093009B162B59D8009A574B03EBA4
:10065000C20351EC190BD3E9002305F081FA0028FD
:100660004FD0009B013B009300230B93109B5D1B1D
:100670006B1E059349BFC5F10103002304930023BA
:1006800054BF04930593009B002B3CDB059B009A11
:1006900013440A92059300230793069B092B00F24B
:1006A0008980052BC5BF043B002501250693069BC9
:1006B000023B032B00F28980DFE803F02E3B395A1E
:1006C000DDE910531D4405F23243202BC6BFC3F1B0
:1006D000400305F21240C3F1200305F1FF35C5BF09
:1006E0000BFA03F326FA00F006FA03F0184304F0BD
:1006F0004BFF01230646A1F1F8770E936BE7012328
:10070000B3E70B90B2E7049B009A9B1A0493534201
:10071000079300230A93C0E700230893099B002B4B
:1007200056DC01231A46CDE9023309920CE001237D
:10073000F3E70023099A0893009B134402930133C3
:10074000012B0393B8BF01230022606A4260042298
:1007500002F1140641689E423ED9204606F040FB55
:10076000019000283CD1124B02464FF4D571C1E6EE
:100770000123DFE7AFF3008061436F63A787D23FB8
:10078000B3C8608B288AC63FFB799F501344D33F80
:1007900071940000889400000000F07F6D940000C8
:1007A00064940000419400000000F83F209600008F
:1007B0000695000001250023089506934FF0FF33AE
:1007C0000022CDE902331223AFE701230893F5E7B6
:1007D000099BCDE90233B7E7013152004160B7E729
:1007E000636A019A1A60039B0E2B00F29D80002D14
:1007F00000F09A80009B002B32DD03F00F03B64A15
:1008000002EBC303D3E90089009BD8054FEA231705
:1008100016D5B24B07F00F070325D3E9082351EC97
:10082000190B05F055F882468B46AC4E57B9424637
:100830004B465046594605F04BF882468B4628E019
:100840000225F2E7F90708D5404649460135D6E9C1
:10085000002304F013FF804689467F100836E5E741
:1008600000F09B80009B02259C4F5E429A4B06F055
:100870000F02361103EBC20351EC190BD3E900232D
:1008800004F0FCFE002382468B46002E7AD1002B1A
:10089000D3D10B9B002B00F082800022904B50465E
:1008A000594605F05DF9002879D0039B002B76D0DE
:1008B000029B002B36DD009B5046594600225F1EEE
:1008C000884B04F0DBFE013582468B46029E2846AB
:1008D000D04604F069FE52465B46D94604F0CEFE8F
:1008E0000022814B04F014FD8246A1F1507B002EC2
:1008F00058D100227D4B4046494604F007FD524640
:100900005B468046894605F049F9002840F093820D
:1009100052460BF100434046494605F021F90028B4
:1009200040F087825BEC19AB119B002BC0F2488131
:10093000009A0E2A00F34481674B03EBC203D3E90C
:100940000089099B002B80F2D580039B002B00F3CC
:10095000D18040F06D820022644B4046494604F04D
:100960008DFE52465B4605F00FF9039E3746002880
:1009700040F043823123019D05F8013B009B013388
:1009800000933EE2F20705D50135D7E9002304F0D4
:1009900075FE01237610083777E7022579E7009F77
:1009A000039E94E701994C4B314403EBC6030D9130
:1009B000089953E90223002943D000204C4904F050
:1009C00087FF52465B4604F0A1FC019D82468B46A0
:1009D0004946404607F054F9064604F0E5FD024654
:1009E00030360B464046494604F090FC52465B4682
:1009F00005F8016B8046894605F0B2F8002863D1FE
:100A000042464B460020364904F080FC52465B4685
:100A100005F0A6F8002840F0B5800D9B9D4281D0DE
:100A20000022304B5046594604F028FE00228246F0
:100A30008B46404649462B4B04F020FE80468946B3
:100A4000C6E75046594604F019FE0D9B82468B4678
:100A5000019D0F934946404607F012F9064604F0FF
:100A6000A3FD02460B4640464946303604F04EFC94
:100A70000D9B05F8016B80469D4289464FF00002B0
:100A800024D11B4B5046594604F042FC02460B460B
:100A90004046494605F082F8002873D152465B462D
:100AA0000020134904F032FC02460B4640464946FA
:100AB00005F056F800283FF435AF0F9D6B1E0F93DD
:100AC00015F8013C302BF8D0009749E0054B04F0B5
:100AD000D5FD80468946BDE720960000F8950000C8
:100AE0000000F03F0000244000001C4000001440C3
:100AF0000000E03F56465F46019D42464B46304669
:100B0000394604F0E5FE07F0BBF8824604F04CFDE0
:100B100042464B4604F0B2FD024630460AF130062A
:100B20000B46394604F0F2FB05F8016B019E0246C4
:100B3000039F0B46AE1BB74235D104F0E9FB42469A
:100B40004B4606460F4605F029F8D0B942464B46BB
:100B50003046394604F0FAFF10B11AF0010F10D1F7
:100B6000204618EE101A06F07BF9002300982B702F
:100B700001300C9B1860219B002B3FF4F1AC1D60F1
:100B8000EEE4009F2B461D4613F8012D392A06D1AD
:100B9000019A9A42F7D13022019901370A701A78E6
:100BA00001321A7090E70022A44B04F067FD002286
:100BB000002306460F4604F0C9FF00289DD0CFE76A
:100BC000089A002A00F0D580069A012A00F3B9801D
:100BD0000E9A002A00F0B18003F23343079E049D71
:100BE000049A012120461A440492059A1A44059257
:100BF00006F0A0F90746002D0CDD059B002B09DD52
:100C0000AB42049AA8BF2B46D21AED1A0492059A59
:100C1000D31A0593079B1BB3089B002B00F0AD80F4
:100C2000002E13DD39463246204606F041FA18EE12
:100C3000102A01460746204606F092F9804618EE33
:100C4000101A204608EE108A06F00AF9079B9A1B34
:100C500006D018EE101A204606F02AFA08EE100AFE
:100C60000121204606F066F90A9B0646002B40F358
:100C700086801A460146204606F01AFA069B06466A
:100C8000012B7FDD4FF00008336906EB8303186901
:100C900007F05EFEC0F12000059B184410F01F0015
:100CA00000F09180C0F12003042B40F38980C0F153
:100CB0001C00049B054403440493059B03440593D3
:100CC000049B002B07DD18EE101A1A46204606F08A
:100CD00049FA08EE100A059B002B05DD31461A463D
:100CE000204606F03FFA06460B9B002B6DD031469E
:100CF00018EE100A07F07BFE002866DA009B18EE5B
:100D0000101A0A222046013B0093002306F0CAF87D
:100D1000089B08EE100A002B00F0AF810023394633
:100D20000A22204606F0BEF8029B0746002B00F37D
:100D30008D80069B022B50DC88E0109BC3F13603AC
:100D40004CE7039B5E1E079BB342B7BF079B9E1BEE
:100D50000796F21ABFBF0A9B00269B180A93039BB3
:100D6000002BB7BFDDE90323DDE903359D1A00231E
:100D700036E7079E049D089F3DE7079A69E7069BB3
:100D8000012B18DCBAF1000F15D1CBF3130393B983
:100D90002BF000431B0D1B0583B1049B4FF0010892
:100DA00001330493059B013305930A9B002B7FF4C9
:100DB0006BAF012070E74FF00008F6E79846F4E7C4
:100DC0003FF47EAF18461C3073E7039B002B37DCE3
:100DD000069B022B34DD039B0293029B6BB93146C9
:100DE0000522204606F05EF80146064618EE100A77
:100DF00007F0FDFD00283FF7BDAD099B019DDB43DA
:100E000000934FF000083146204606F029F8002FE5
:100E10003FF4A6AEB8F1000F05D0B84503D0414667
:100E2000204606F01DF83946204606F019F897E6E8
:100E300000263746E1E7009737469BE5000024404F
:100E4000089B002B00F0CA80039B0293002D05DD58
:100E500039462A46204606F085F90746B8F1000FC4
:100E60005BD07968204605F0BBFF054628B9874B63
:100E7000024640F2EA21FFF73DBB3A6907F10C0157
:100E80000C300232920007F03AFB0122294620463C
:100E900006F068F9019BB846074603F10109DDE950
:100EA0000123134405930AF001030493314618EE1D
:100EB000100A07F051FC4146029000F1300A18EE8A
:100EC000100A09F1FF3B07F092FD3A4603903146C4
:100ED000204606F0B7F9C268054602BB014618EE87
:100EE000100A07F084FD024629462046079205F0C5
:100EF000B7FF4D46DDE9063243EA0201049B0B438E
:100F00000FD1BAF1390F2AD0039B002B02DD029BCF
:100F100003F1310A8BF800A075E73846BAE70122E1
:100F2000E2E7039B002B04DB06990B4304990B4378
:100F300022D1002AEEDD18EE101A0122204606F01A
:100F400011F9314608EE100A07F051FD002803DCC4
:100F5000E0D11AF0010FDDD0BAF1390FD7D1392322
:100F60008BF800302B461D46013B15F8012C392A21
:100F700070D001321A7046E7002A07DDBAF1390F46
:100F8000EDD00AF101038BF800303CE7059B09F82E
:100F900001AC994546D018EE101A00230A222046CB
:100FA00005F080FFB84508EE100A4FF000034FF03F
:100FB0000A024146204606D105F074FF80460746E6
:100FC00009F1010972E705F06DFF394680460023FB
:100FD0000A22204605F066FF0746F1E7039B0293CD
:100FE000019D314618EE100A07F0B6FB019B00F197
:100FF000300A05F801ABEA1A029B934209DD18EEAC
:10100000101A00230A22204605F04CFF08EE100AB1
:10101000E7E7029B4FF00008002BCCBF1D460125DF
:10102000019B1D4418EE101A0122204606F09AF882
:10103000314608EE100A07F0DAFC002892DC02D1F3
:101040001AF0010F8ED12B461D4613F8012D302AC0
:10105000FAD0D8E6019A9A4285D1009B01330093D9
:1010600031231370CFE60A4BFFF798BA219B002B70
:101070007FF471AA074BFFF791BA029B002BAFDCFC
:10108000069B022B3FF7A9AEAAE700BF069500001A
:10109000409400006494000010B5054C237833B9E7
:1010A000044B13B1044800E000BF0123237010BDBE
:1010B00020140020000000004C97000008B5034BEE
:1010C0001BB10349034800E000BF08BD0000000059
:1010D000241400204C970000A3F5803A704700BF0D
:1010E000174B002B08BF134B9D46FFF7F5FF002160
:1010F0008B460F461348144A121A07F00DFA0E4B8E
:10110000002B00D098470D4B002B00D098470020B3
:10111000002104000D000D48002802D00C4800E01A
:1011200000BF04F0E9FE2000290006F0D6FE04F01E
:10113000CFFE00BF0000080000000000000000001B
:10114000001000202812002080170020000000005E
:101150000000000030B585B010220021144C684614
:1011600007F0DAF90121242001F0B0F869462046A1
:1011700002F008FB242001F0D3F8BDF80250236BE5
:101180000135B0FBF5F01425DB07B0FBF5F504D411
:1011900040F2A241074806F05BFFE561A36943F016
:1011A0000103A3618022044B1A6005B030BD00BF6B
:1011B00000800450F88B000000E100E0034B596907
:1011C00003F5005251610122DA607047008004503B
:1011D000044B5A6903F500535A610122024B1A70FD
:1011E000704700BF008004500617002010B586B07D
:1011F000ADF804009DF82400ADF80C30BDF82030A7
:10120000ADF806000291074801A90492ADF8143028
:1012100002F07CF8034C08B906B010BD204601F07E
:1012200053FFF8E70000015A0B4607B50649074A85
:101230000870137008200123CDE90030A620FFF7C5
:10124000D5FF03B05DF804FB071700200817002046
:101250000123042213B50649064C0870CDE900327B
:10126000A6202246FFF7C2FF207802B010BD00BFC3
:10127000071700200817002030B585B06C46114BC9
:10128000114D0FCB84E80F00104A1148D2F8981482
:10129000014041F00311C2F89814D2F89434214669
:1012A000034043F4003343F00303C2F894340323B0
:1012B0002846C2F8903401F0D3FE1023AB6005B08D
:1012C00030BD00BF4C8C00000000015A00C003502C
:1012D000FCFFF0FF08B50020FFF7BAFFE52804BFC8
:1012E0001022094B4FF00B0108BF1A613120FFF7A4
:1012F0009BFF09212C20FFF797FFBDE8084008213C
:101300002D20FFF791BF00BF00E003503223F7B557
:101310000E460C4915460B700422062307460A4C5C
:10132000CDE90032A62001232246FFF75FFFB4F982
:1013300000303B60B4F902303360B4F904302B6004
:1013400003B0F0BD07170020081700202DE9F04179
:1013500088B000F0C3F802F0F3F901280ED1514B28
:1013600004205A6E4FF480234F49520358BF4F4A0E
:101370004B6601F51041086258BF536606F0AEFC9B
:10138000FFF7E8FEFFF71AFF01230B2202210320DB
:1013900001F084FD0321012308460B2201F07EFDAC
:1013A000042201231146002001F078FDFFF764FFBD
:1013B000FFF790FF4B2006F0A2FC4B2006F0A9FCA3
:1013C0000A2006F0B0FC77212720FFF72DFF384FC9
:1013D00007212820FFF728FF2D212920FFF724FFD0
:1013E00000263C46334DDFF8F080052E20D1324CEC
:1013F0002F4D0FCD0FC40FCD0FC495E803002F4D17
:1014000084E803000FCD2E4C0FC40FCD0FC495E818
:1014100003002C4D84E803000FCD2B4C0FC40FCDDF
:101420000FC495E8030084E8030008B0BDE8F0812C
:101430002846FEF785FE98F80030002BD5D0D5E978
:101440000423CDE90223D5E90223CDE900231F4877
:10145000D5E9002305F0D0F8D5E9002331461C4832
:10146000E7E8022305F0C8F8D4E90823CDE906230C
:10147000D4E90623CDE90423D4E90423CDE90223EA
:10148000D4E90223CDE900231248D4E9002305F072
:10149000B3F80A2005F0C8F80023013688F80030B8
:1014A000A3E700BF008000500090005000A0005053
:1014B00018130020081400202812002040130020D8
:1014C0007812002068130020C81200205C8C0000F5
:1014D000758C00008A8C000006170020002310B5D0
:1014E000074C194620680222806805F029F900237C
:1014F00020680222BDE810401946406805F020B976
:101500002010002010B5234C01F098F801F08AFA61
:10151000236F23F0070343F00303236706F0E2FD84
:101520001D4B00209B6A9B075EBF01221B4B9A62EA
:10153000D4F8203123F0030343F00203C4F8203130
:10154000D4F8243123F0070343F00203C4F8243114
:10155000D4F8403123F0030343F00203C4F84031D0
:10156000D4F8603123F0030343F00203C4F8603180
:10157000D4F8403223F0030343F00203C4F84032AE
:10158000D4F8003223F0070343F00203C4F800321A
:1015900010BD00BF0080005000C0005000E00050AF
:1015A00008B502F0CDF801280ED1114B04205A6E77
:1015B0004FF480230F49520358BF0F4A4B6601F581
:1015C0001041086258BF536602F00EFB06F0EBFCB8
:1015D00002F098FA02F0F2FA02F0B6FAFFF792FF80
:1015E00002F0A0FA06F0D6FCBDE8084002F0CCBF3D
:1015F000008000500090005000A0005030B5254DF4
:1016000095B00DAC0FCD0FC495E80700032384E817
:1016100007008DF84D3029231F4A2049CDE90223C8
:101620001F4B1024CDE904134FF480732246002190
:1016300009A8069306F070FF4FF4A020194B0DAADD
:10164000CDE907030F238DF82430174B17480A9371
:1016500050230B9340F20113ADF83030144B07A91F
:10166000009302AB8DF8254002F014FE044618B139
:101670008821104806F0ECFC9DF832304FF4E13040
:10168000002B0CBF0321002106F0CAFC204615B038
:1016900030BD00BFFC8C00000000065000050006B5
:1016A000000800072400065012170020B014002084
:1016B00054140020CE8C0000831E012B10B512D8CC
:1016C000012910D8114B04221B6905210020C3F306
:1016D000401301F0E3FB0E4B1B681868A8B1BDE88E
:1016E0001040436A18478B1E012B0CD801280CD8D8
:1016F000BDE810400022054B05211B691046C3F3CD
:10170000401301F0CBBB0129E5D910BD00C0035047
:101710000810002008B50749074802F0FBFFFFF753
:101720006DFF28B1BDE80840B821044806F090BC20
:1017300008BD00BF00100020A8140020CE8C0000BF
:10174000014806F00FBE00BFB0140020014B1A6A1A
:1017500018681047B0140020002209490B684BB1EB
:10176000834204D1836A4AB19362012070471A46CA
:101770009B6AF4E70028F5D0184670470B60F4E741
:10178000D414002070B5104D2B681BB100260F4BF0
:101790001C6804B970BD94F82C3093B106F0BEFCFF
:1017A0002B6884F82C60013B2B6006F0BDFC94F89C
:1017B0002D3013B92046FFF7CFFFD4E9083120467A
:1017C0009847A46AE5E700BFD8140020D41400208D
:1017D000034B1B68002B0CBF01200420704700BF87
:1017E000D8140020024B1868B0FA80F04009704706
:1017F000D814002008B500F02DF8124B12498B4286
:1018000012D30020114B12498B4218D3FFF768FC0A
:10181000186850F82240586840F822400132986811
:101820008242F5D30C33EAE70022F8E71C6844F85B
:10183000220001325C68A242F8D30833E4E70022B8
:10184000F8E700BF54970000609700006097000021
:10185000609700004FF400414FF0FF30124B134AE5
:1018600010B59A60D3F8882042F47002C3F888203B
:101870000F4A916601F1884101F5005210664FF65A
:10188000DF7050660220C3F8D000BFF34F8FBFF364
:101890006F8F08244FF440330648C0F88041D3606E
:1018A00004600B6110BD00BF00ED00E0000000000F
:1018B0000090005000E100E0014B1868704700BF45
:1018C00010100020084B1B6F03F00703022B04D0FD
:1018D000032B05D0012B05D0FEE7044B1868704799
:1018E000034BFBE7034870470080005010100020B6
:1018F00014100020002D310108B5FFF7E3FF054B60
:101900001B6FC3F303330133B0FBF3F0024B1860DA
:1019100008BD00BF008000500C1000200048704738
:1019200000B4C404014B1868704700BF14100020B5
:10193000054B1860054B1B6F03F00703032B01D108
:10194000FFF7DABF704700BF14100020008000507E
:1019500000487047002D3101014B1868704700BFE7
:101960001810002038B504460D4601B118B93721CA
:10197000034806F06DFB23682B60256038BD00BF6F
:10198000188D000005490A681318054883428CBF6A
:101990004FF0FF320B601046704700BF1C10002054
:1019A0000080002008B501213A2000F08FFC0321BF
:1019B00001230422002001F071FA002006F0D0FB80
:1019C0000122214B4FF46070C3F8442400F0A8FCBE
:1019D0001E4B00F5D520D3F8F02000F2FC4042F079
:1019E0000102C3F8F020D3F8FC2042F08072C3F863
:1019F000FC20174AA3F55D431A60164B0222B0FB88
:101A0000F3F0154B01381861C3F8F0204FF48072E1
:101A1000C3F804234FF06043104A0020C3F8B02FEE
:101A20000F4AC3F8802ED3F8002E42F48072C3F818
:101A3000002EFF2283F82020D3F8002E22F480729B
:101A4000C3F8002E08BD00BF00D0035000ED00E039
:101A5000FF030040F8590D00000004E055CEACC56E
:101A6000090001004FF06043D3F8802E30B5D20753
:101A700015D501240B4D8440D5F8FC2042F080722E
:101A8000C5F8FC20D3F8002E2243C3F8002E53F8EB
:101A90002020002AF0D003F82010002030BD1120B3
:101AA000FCE700BF00ED00E02DE9F04F9A46564BF1
:101AB00085B01B7806460F461546DDF83C909DF82C
:101AC00044B0DDF85080002B00F08D80072A00F232
:101AD0008C800E9B002B00F08880B9F1000F00F085
:101AE0008480129BB3F5006F7FDC012802D1109B2C
:101AF000002B7AD0454B03EB05131B7B002B76D0D4
:101B0000434C10220021684606F006FD04EB451404
:101B10001022002F59D13946204606F0FDFC43F231
:101B200010036380BBF1000F03D1E37843F003039C
:101B3000E370374A0E9B02EB451CCCE90193129BE4
:101B40006901013BC3F30A009DF84C30012E03F0FC
:101B500003034FEA836343EA001E53582D48CDF830
:101B600000A000EA03004EEA0003535041D11323C2
:101B70000CF1100ECCF80C309CE80F008EE80F0032
:101B80006FF00301DCF81C20109B61F39F02012F12
:101B9000CCF81C20CCF8143003D1CCF81890CCF839
:101BA00004300027194A290102EB051342F801808D
:101BB000159A28465A60694622469F605E7301F076
:101BC0008DFC384605B0BDE8F08F0021204606F0B8
:101BD000A3FC4FF444736380BBF1000FA9D1E378F9
:101BE00043F03003A4E70C48ECE70C48EAE70C4864
:101BF000E8E7B8F1000FD4D19CF8023068F3041381
:101C00008CF80230CDE700BF62170020DC14002002
:101C10005C1500200F80FFF3028000F0018000F0CF
:101C2000078000F038B5124B05461B78DBB1E0B1F8
:101C300006F074FA0F4A00231146147B54B92B6046
:101C400001251A0101EB03131D738C5006F06CFA89
:101C5000204638BD0133082B02F11002EDD106F009
:101C600063FA0548F5E70548F3E70548F1E700BFE3
:101C700062170020DC140020048000F0028000F0D5
:101C8000018000F013B506F049FA00230B4A147BDB
:101C90007CB90133082B02F11002F8D1019001F058
:101CA00093FB074B01981C7006F03EFA204602B0E9
:101CB00010BD06F039FA0348F9E700BFDC14002034
:101CC00062170020058000F00D4B10B51B7804460C
:101CD00093B1072812D806F021FA0A4B03EB04133C
:101CE0001A7B2AB100241C7306F01EFA204610BD90
:101CF00006F01AFA0448FAE70448F8E70448F6E759
:101D000062170020DC140020068000F0028000F042
:101D1000018000F0154B13B51868002301908DF871
:101D2000043006F0FBF9124B1C7824B106F0FCF9E4
:101D3000104802B010BD01221A7006F0F5F90E4BE2
:101D400001A81C731C7783F82C4083F83C4083F86F
:101D50004C4083F85C4083F86C4083F87C40082357
:101D60008DF8073001F070FB2046E2E76C8D000033
:101D700062170020038000F0DC1400200A4A08B536
:101D800012785AB107280BD8084A02EB00131B7BC4
:101D900043B1002101F036FB002008BD0448FCE7F8
:101DA0000448FAE70448F8E762170020DC14002032
:101DB000028000F0018000F0078000F00A4A08B5B8
:101DC00012785AB107280BD8084A02EB00131B7B84
:101DD00043B1012101F016FB002008BD0448FCE7D7
:101DE0000448FAE70448F8E762170020DC140020F2
:101DF000028000F0018000F0078000F00A4A08B578
:101E0000127852B107280AD8084A02EB00131B7B4C
:101E10003BB101F0E3FB002008BD0548FCE70548A5
:101E2000FAE70548F8E700BF62170020DC1400203D
:101E3000028000F0018000F0078000F00D4B1B785D
:101E400093B1072812D889B10B4B03EB00131B7B0E
:101E500073B10A4B1A6D012303FA00F010401ABF48
:101E600000200B70087070470548704705487047A0
:101E70000548704762170020DC1400200000045061
:101E8000028000F0018000F0078000F00B4A10B5DE
:101E900012780C4662B107280CD859B1084A02EBF7
:101EA00000131B7B43B101F0B5FB2070002010BD77
:101EB0000448FCE70448FAE70448F8E76217002002
:101EC000DC140020028000F0018000F0078000F0A8
:101ED0002DE9F843174B1F6D5B6D1F4000D5FEE7E2
:101EE00001260025144CDFF85480DFF85490374267
:101EF00017D02368C8F850609BB1A168284601310B
:101F00006268A1609847637B012B0AD148B909EB4D
:101F100045131A7B60F341021A731A7F60F3410282
:101F20001A770135082D4FEA460604F11004DED178
:101F3000BDE8F88300000450DC14002000200450A9
:101F40005C150020044BD3F88420D206FBD4D3F8D0
:101F50008400C0F3811070470040005038B5104B2A
:101F60000546D3F820310C4603F00303022B0BD0B7
:101F7000032B0DD0012B0FD1FFF79EFC052305B1DC
:101F8000286004B1236038BDFFF7CCFC0323F6E7DB
:101F9000FFF7DEFC0223F2E701230020EFE700BF9A
:101FA00000800050F7B50027114B0197D3F880410E
:101FB000064604F00304012C0D4608D0022C12D072
:101FC00041F27A310B4806F043F83C4604E03946CA
:101FD00001A8FFF7C3FF0F240EB1019B336005B1C9
:101FE0002C6003B0F0BDFFF7B3FC0190F4E700BF35
:101FF00000800050708D000038B51A4B0546D3F8AC
:1020000024010C4600F00700062821D8DFE800F084
:10201000280410181C0C1400FFF74EFC052305B112
:10202000286004B1236038BDFFF746FC0623F6E7BD
:10203000FFF778FC0323F2E7FFF774FC0423EEE7D5
:10204000FFF786FC0223EAE705F0FAFF0723E6E73D
:10205000054840F6717105F0FBFF00231846DEE7E6
:102060000123DCE700800050708D000038B5104B74
:102070000546D3F840310C4603F00303022B0BD086
:10208000032B0DD0012B0FD105F0DCFF092305B187
:10209000286004B1236038BDFFF75EFC0823F6E733
:1020A00005F0D3FF0B23F2E701230020EFE700BF89
:1020B0000080005038B5164B0546D3F800020C4698
:1020C00000F00700042819D8DFE800F020030B0F08
:1020D000130005F0B7FF092305B1286004B12360A0
:1020E00038BDFFF739FC0823F6E705F0AEFF0B23F8
:1020F000F2E7FFF701FC0E23800AEDE7054841F205
:10210000384105F0A5FF00231846E5E70123E3E782
:1021100000800050708D000038B5124B0546D3F892
:1021200040320C4603F00303022B0BD0032B0DD0DF
:10213000012B0FD105F086FF092305B1286004B1FA
:10214000236038BDFFF708FC0823F6E705F07DFFA4
:102150000B23F2E7044841F2C33105F079FF002375
:102160001846EAE700800050708D000038B5104B2B
:102170000546D3F860310C4603F00303022B0BD065
:10218000032B0DD0012B0FD105F05CFF092305B106
:10219000286004B1236038BDFFF7DEFB0823F6E7B3
:1021A00005F053FF0B23F2E701230020EFE700BF08
:1021B0000080005010B40F4C0B46D4F8204204F0BD
:1021C0000304012C0ED0022C10D008B100210160B4
:1021D0000BB100221A6040F69B7107485DF8044B72
:1021E00005F036BF5DF8044BFFF7B8BE5DF8044B51
:1021F000FFF73CBF00800050708D0000B0F5207FDD
:1022000010B534D009D8B0F5007F2AD003D898B1E2
:10221000B0F5C07F10D0002421E0B0F5607FFAD186
:10222000154BD3F88030C3F301149B0617D5032C4C
:1022300015D040F285210FE00F4B1C6F230B13F0DC
:102240000E0FC4F303340AD0032C08D0072C06D099
:102250000F2C04D040F27521084805F0F9FE601CEF
:1022600010BD054BD3F89040C4F30464F7E7024B6C
:102270001C6FC4F38024F2E700800050708D0000D2
:102280004FF400320E4B10B504469A660020FFF75B
:10229000B5FF41F6713260430A4C0B4BA0428CBF34
:1022A0004FF480100020D969DA639A6822F4401252
:1022B00002439A60CA0344BF0022DA6310BD00BF24
:1022C00000900050005A62020000035070B54609A9
:1022D00004460D460FD14FF447710D4805F0B8FE86
:1022E000334604F01F0485B103F58053012000FA42
:1022F00004F41C6070BD012E05D0064B064A022E68
:1023000018BF1346EDE7054BEBE703F50053EDE788
:10231000708D000068800050608200506480005022
:10232000002330B5802885B00446019374D02AD8A4
:10233000002877D0A0F12004412C32D8412C30D88D
:10234000DFE804F070737073868686867373903F3F
:10235000A6653F7373732F2F2F2F2F2F8B577373F8
:1023600073B0AB732F2F2F2F2F2F2F2F2F2F2F2FF8
:102370002F702F707070862F2F2F2F2F2F2F2F2F12
:102380002F2F2F2F7070B0F5806F61D024D8B0F54B
:10239000007F54D00BD8B0F5807F68D0B0F5C07FF7
:1023A00040D040F27941424805F052FE37E0B0F5A6
:1023B000607F44D0F5D8B0F5207F36D0B0F5407FAF
:1023C000EFD1FFF799FA04464FF42070FFF716FF9C
:1023D000B4FBF0F0400821E0B0F5C06F58D00DD844
:1023E000B0F5A06F39D0B0F5B06F3BD0B0F5906FBD
:1023F000D7D1002101A8FFF7FFFD10E0B0F5E06F95
:102400004BD0B0F5F06F4DD0B0F5D06FC9D10021F1
:1024100001A8FFF74FFE02E0FFF754FA0190019880
:1024200005B030BDFFF768FAF8E7FFF765FA044634
:102430004FF42070FFF7E2FEB4FBF0F0EEE7FFF799
:1024400041FA05462046FFF7D9FEB5FBF0F0E5E777
:10245000002101A8FFF782FDE1E7002101A8FFF7B5
:10246000A9FEDCE7002101A8FFF79CFDD7E7029356
:102470004FF0E0231B695B0705D5FFF73DFA02909B
:10248000029B0193CBE703A902A8FFF7EFFDF7E753
:10249000002101A8FFF7EAFDC1E7002101A8FFF72D
:1024A0003BFEBCE7002101A8FFF760FEB7E700BFD5
:1024B000708D000008B58020FFF732FF034B984273
:1024C0009EBF4FF48032024B1A6708BD005A620269
:1024D00000A000501FB50023B0F5807F01937FD08E
:1024E00027D8382800F09C800BD82438092810D829
:1024F00009280ED8DFE800F06F6F6F6F0D0D670DC4
:102500003685522867D007D83D283AD03E2800F0BB
:102510008C8040F25A5152E08028FAD1454B1B6F13
:1025200003F00703013B032B47D8DFE803F04441E6
:102530003F75B0F5D06F64D019D8B0F5A06F6FD0EB
:102540000AD8B0F5806F46D0B0F5906FE1D1002089
:1025500001A9FFF751FD3AE0B0F5B06F33D0B0F507
:10256000C06FD6D1002001A9FFF780FD2FE0B0F5A4
:10257000006FECD00AD8B0F5E06F56D0B0F5F06F30
:10258000C7D1002001A9FFF7F1FD20E0B0F5086FE9
:10259000BFD1284BD3F8003103F00303022B35D011
:1025A000032B37D0012B39D1FFF7BCF9032300E00F
:1025B000052301930BE00223FBE740F2AB411E48E9
:1025C00005F046FD03E0002001A9FFF7EBFC0198B0
:1025D00005B05DF804FB002001A9FFF7BFFCF6E79A
:1025E00002934FF0E0231B695B0705D5FFF784F9E1
:1025F0000C230393039BDCE703A902A8FFF736FD36
:10260000F8E7002001A9FFF755FDE0E7FFF7A4F97F
:102610000823CEE705F014FD0723CAE70123C8E726
:10262000002001A9FFF7C6FDD1E7002001A9FFF7AF
:1026300073FDCCE700800050708D00004FF4002245
:10264000034B5A66012203F580439A62704700BF2C
:1026500000900050036870B50F2B044604D940F673
:1026600046316E4805F0F4FC63680F2B04D940F640
:1026700049316A4805F0ECFCA3680F2B04D940F6F9
:102680004C31664805F0E4FC237B0F2B04D940F65F
:102690004F31624805F0DCFC637B0F2B04D940F618
:1026A00052315E4805F0D4FCA37B3F2B04D940F6A1
:1026B00055315A4805F0CCFCE37B3F2B04D940F65A
:1026C0005831564805F0C4FC2369032B04D940F661
:1026D0005B31524805F0BCFC6369032B04D940F61A
:1026E0005E314E4805F0B4FCE369012B04D940F695
:1026F00061314A4805F0ACFC8020FFF7EBFE03286F
:1027000000F082804FF40022454B02215A6645F6C4
:102710000E03444AC2F88030434B9962012103F50D
:1027200080539962936DD903FCD4D4E900131B053F
:1027300043EA0163E17B94F822500B43217B94F838
:10274000236043EA0143617B43EA0133A17B43EA0F
:10275000811313619169D4E904031B0643EA806382
:1027600001F000410B43A17EE07E0B43217E43EA52
:102770000143617E43EA01239361E369126A002BFE
:102780000CBF0021082122F00D0242EA030242EAB6
:102790008002244B42EA01021A6294F820204FEA98
:1027A000421232D1986A94F8211020F0330042EAA4
:1027B0000112024342F001029A621C4A996D32EA08
:1027C0000101FBD1022218498A621A659A6D5200F2
:1027D000FCD41869A26820F4700040EA02504FF05F
:1027E00000421861104B9A611DB9022203F5805313
:1027F0009A6216B901220E4B9A6294F824301BB1EA
:10280000084B0C4AC3F8802070BD996A21F033014F
:1028100031430A4342EA4502EEE700BF708D0000F3
:102820000090005000C0005000D000500300014054
:1028300000E00050F1A7FFFF014B93F90000704743
:1028400063170020436810B5072B044604D940F6EF
:102850007C512A4805F0FCFBA368032B04D940F601
:102860007E51264805F0F4FB2378032B04D94FF45E
:102870005861224805F0ECFB94F90130002B04DA92
:1028800040F682511D4805F0E3FB4FF480011C4ADD
:10289000637851664FF4D151022002F5B83251628B
:1028A00018494F2B48604FF0010028BF4F2301F516
:1028B000805148601169C903FCD4217843EA01239F
:1028C0005361D4E901131B0143EA0123617B0B43EC
:1028D000217B43EA41039360E37BA17B1B0143EA35
:1028E0004113617C0B43217C43EA41035360A37C89
:1028F00013B16FF4D153536210BD00BF708D00004F
:102900000090005000100250014B1880704700BF2B
:10291000F2110020014B1880704700BFF011002019
:10292000B0F5207F10B565D00ED8B0F5007F4FD040
:1029300003D800B3B0F5C07F1DD040F2FF21BDE841
:102940001040344805F084BBB0F5607FF5D14C1ED3
:10295000012C06D9042904D040F2E2212D4805F0CB
:1029600077FB2D4AD2F8803023F0300343EA04137A
:10297000C2F8803010BD102901F1FF3404D8274B74
:1029800023FA01F1CB0704D440F2B621214805F027
:102990005FFB05F094FB05F0A0FB4FF48031204B6A
:1029A0001D4A1967136F23F4704343EA0433136716
:1029B000FEF7A2FF0446FFF7C5FAC0F10201204668
:1029C00005F085FB00F03EF8BDE81040FFF772BD52
:1029D0004C1E1F2C04D940F2F3210E4805F038FBA1
:1029E0000D4BD3F8901021F0F85141EA0461C3F87F
:1029F0009010BFE74C1E012C04D940F2F921054884
:102A000005F026FB044B196F21F4806141EA842113
:102A10001967AFE7708D00000080005016010100BB
:102A20000090005008B50121022000F0CDF805F01B
:102A300046FB05F052FB4FF48032014B1A6708BD8C
:102A40000090005008B54FF4C070FFF769FCBDE876
:102A50000840044988428CBF022101214FF42070B4
:102A6000FFF75EBF80F0FA02194B10B51B6873B315
:102A7000184A5268012A2AD0174A8020C2F8003129
:102A8000FFF728FD05281FD14FF4C070FFF7B6FBF4
:102A90000128044604D102214FF4C070FFF740FF23
:102AA00007220E4B1A610122A3F580535A60094A8E
:102AB0001369DB07FCD5012C09D12146BDE8104084
:102AC0004FF4C070FFF72CBF0122054B5A6010BDB8
:102AD0005C16002000C001500080005000E0015052
:102AE00000D0015000224FF40031074B1A60074A12
:102AF000516602F598325268012A02BF044AD2F8A0
:102B000000211A60704700BF5C1600200090005042
:102B100000800050044A4178536F23F4407343EA25
:102B200001235367704700BF0040005010B50446B2
:102B300008B1FFF7D7FF0E4A136943F0040313618E
:102B400001F0FAFF05F0F3FA05F0E1FA06F04CF8AF
:102B500005F0E1FA05F0ECFA02F002F81CB1BDE86C
:102B60001040FFF781BFBDE81040FEF7C5BE00BFB3
:102B700000ED00E010B5044608B1FFF7B3FF0C4AC2
:102B8000136943F00403136101F0D6FF05F0BFFAA7
:102B900006F02AF805F0BFFA01F0E2FF1CB1BDE82B
:102BA0001040FFF761BFBDE81040FEF7A5BE00BFB3
:102BB00000ED00E0034A0179D36E23F030030B43AC
:102BC000D3667047004000502DE9F0410446264B83
:102BD000D3F88420D006FBD4D3F88430C3F3811318
:102BE0009C423ED0FEF76EFE012C05460BD11F4BDA
:102BF000984204D940F247711D4805F029FA012195
:102C0000284605F064FA05F082FA4FF00072194B7D
:102C100007465A66204605F090FA4FF48063124E3C
:102C2000621E9340DFF848803367736E9A0103D4C5
:102C3000D6F884309B060AD5384605F06CFA022C8B
:102C40000FD12846BDE8F041002105F040BAD6F882
:102C500084309906E9D540F25571404605F0F8F9FF
:102C6000E3E7BDE8F08100BF00400050005A620277
:102C7000C18D00000060005007B518B90191FEF742
:102C800021FE0199064B1B7843B1064B984205D8AB
:102C9000012003B05DF804EBFFF796BF0220F8E7D0
:102CA00064170020005A62020278034B01210020C1
:102CB0001A70FFF7E1BF00BF641700204FF0004219
:102CC000012138B5274B5A6603F50C2359604AF6A3
:102CD000CD33254A556C13640D4048BB94680C40B5
:102CE00009D0224B224C9960D36ADB0710D4A04252
:102CF0000CD14FF0FF3401221C4B5A6015B11A4B16
:102D00001C4A1A6405F01AFA204638BD0130EBE778
:102D1000A0424FF0FF3418BF0024ECE70131D36A22
:102D200013F0080307D08142F8D16FF00104E5E702
:102D300000210F48F3E78142F7D020210B4A51626E
:102D40000121A2F5805291600749094A486A80062C
:102D500003D49342E9D00133F8E79342E5D000244D
:102D6000CCE700BF009000500040095000600950BF
:102D700040420F003254FFFF4FF0004238B5194B6C
:102D8000194C5A66012203F50C235A604AF6CD33DA
:102D9000656C23644378154093401343134AD3630F
:102DA000A368827823F0740343EA0213C278002AEE
:102DB00014BF042200221343A3600279837943EAFB
:102DC000022323614279C37943EA022363610078D5
:102DD000FFF774FF0DB1064B236405F0AFF9012036
:102DE00038BD00BF00900050004009500040005026
:102DF0003254FFFF38B50D460446D8B101281CD027
:102E000002281CD0032803D10C23EB40DB0704D499
:102E100040F22D410B4805F01BF93020012141F211
:102E20001003444304F1A04401FA05F504F570349D
:102E3000E55038BD40F2FF13E7E71F23E5E7FF2326
:102E4000E3E700BF128E000038B50D460446D8B146
:102E500001281CD002281CD0032803D10C23EB40EE
:102E6000DB0704D440F2FE310B4805F0F1F83020C6
:102E7000012142F21003444304F1A04401FA05F594
:102E800004F57034E55038BD40F2FF13E7E71F2327
:102E9000E5E7FF23E3E700BF128E0000F8B50D461B
:102EA00016461F46044660B301282DD002282DD0B7
:102EB000032803D10C22EA40D30704D44FF4B071A5
:102EC0001B4805F0C5F826B12946204607B3FFF791
:102ED00091FF04EB4403072D4FF00F014FEA03135A
:102EE00019D8A80006FA00F281401248184405F0EB
:102EF00026F9E6B929462046AFB1BDE8F840FFF70C
:102F000079BF40F2FF12D6E71F22D4E7FF22D2E7B3
:102F1000FFF79AFFDDE7A5F10800800006FA00F24E
:102F200081400548E2E7BDE8F840FFF78DBFF8BDF6
:102F3000648E000004C003500CC00350F8B5064670
:102F40000C4615469ABB40F20F11BDE8F8402F48D9
:102F500005F07EB82E4B9E4201D12F203DE040F27D
:102F600029112A4805F074F83AE0032F42D0294B82
:102F70003CE06FEAC50505442C44B4FBF0F4013C89
:102F80000AD540F27511214805F062F84FF4BB7183
:102F90001E4805F05DF802E0B4F5007FF6D2B36894
:102FA0009B0702D5002C08BF0124B461F8BD03F0D3
:102FB0000307836823F44073836005F0A8F8B268C0
:102FC00082EA072303F440735340B36005F0A3F88B
:102FD00034B9114B9E42BDD12E20FFF7A1F9044612
:102FE000B3689A07C1D5032F04D00C4B53F8273090
:102FF0009C4204D84FF4AF71044805F029F8084BFF
:10300000D85D6843B5D140F26F119EE7B68E0000DF
:1030100000800650148F00000000015A088F000045
:10302000208F000038B50B4B044698420D4607D060
:10303000094B984204D040F28F11084805F008F877
:10304000043425B104F580540123236038BD04F510
:103050000054F9E70000015A00800650B68E0000C7
:1030600038B5154B044698420D4607D0134B98428D
:1030700004D04FF4D271124804F0EAFF0023114A41
:10308000236404F50053DA636A7804F108037AB91B
:1030900003F5805302221A602046D5E901122B7BEA
:1030A000FFF74CFF20462978BDE83840FFF7BABF4C
:1030B00003F50053EEE700BF0000015A0080065000
:1030C000B68E0000FFFF1F002DE9F843894B9842A0
:1030D0000BD0894B984226D0884840F2FB1104F06F
:1030E000B7FF6FF00300BDE8F883854B4025052648
:1030F0004FF000084FF0030C996800F50054C26BC4
:1031000012F4C06F15D097050FD5FD225A70092211
:103110001A700022026493F90110012900D15A703B
:1031200093F90100DFE7774BE0E75605EFD5FE2284
:10313000ECE71F78082F00F2D880DFE817F00900CD
:103140001F0041004C006900740096009E00CD00F5
:103150004C880A88E5060AD5120A02F0060242F0F7
:10316000F002012119704263C1600120BBE702F047
:10317000FE02A10748BF42F00102F2E7170607D599
:10318000802100F50052D1634FF608721A8062E088
:103190005206EAD54A88E563D70604D502221A709A
:1031A0000B784363E1E7920765D507221A701B7914
:1031B00001EBC3010B89012BD7D10823C360D4E7EE
:1031C0001706DDD45206D0D54A88E563970752D555
:1031D00083F800C093E74C880A88E50643BF120ACB
:1031E00002F0060242F0F00202F0FE02640709D586
:1031F0001C7942F0010201EBC4010989012904BFD5
:103200000821C160042119700123C3604263ACE747
:103210001706B5D45706A8D54A88E56352072AD5BC
:1032200007221A70A1E71A795F8801EBC20EBEF877
:103230000890B94511D80132D2B21A714F88A3F85B
:10324000028017F0040FC3D1FF0702D4012A7FF6D2
:1032500056AF08221A700223B0E7DEF80420791C6A
:103260005980D25D42630622DBE7170688D45706F1
:103270007FF57BAFE5631E7041E794067FF575AF80
:10328000456A214C46691A793440B4F5003F04BFC1
:10329000466A4FF4005601EBC20100F500540A895A
:1032A00008BFE6632026E6635C88A24281BF4968C6
:1032B000661C5E800D5559888A42CAD90424012AA9
:1032C000C46004D9013A914201D10822C2601A783F
:1032D000092A3FF41EAF48E7D2057FF546AF4FF409
:1032E000807100F50052D16311E74FF609321A8060
:1032F0000FE700BF0000015A00800650B68E0000A4
:10330000601600206C1600202000020038B5284B03
:10331000044698420D4644D0264B98423ED040F297
:103320005E31254804F094FE002D3DD140F25F311E
:10333000214804F08DFE1E4B9C4228D11F4B226970
:10334000D00744BF2022E2606A88910701D529890D
:1033500051B3520701D52A8A32B34FF480721A60F2
:1033600000229D601A71C023E3606369DB0513D4FA
:10337000202204F50053DA63114A2046DA63236CF5
:1033800043F4FC632364BDE83840FFF79DBE094B5E
:103390009C4209D10B4BD2E7636AE6E70029F9D1D9
:1033A000C4E70029CAD1C1E76FF0030038BD00BFF0
:1033B0000000015A00800650B68E00006016002002
:1033C000FFFF1F006C1600204FF400120B4B10B5CE
:1033D000C3F88020BFF34F8FBFF36F8F0024FF220D
:1033E000074B21465C6520209A625C60FEF76EFF09
:1033F0002146BDE810402120FEF768BF00E100E053
:1034000000000450072838B504460D4603DD772137
:10341000094804F01DFE1F2C03D99121074804F030
:1034200017FE074B074A0120002D18BF134600FA6C
:1034300004F41C6038BD00BF248F0000768F0000AC
:10344000401004504020045010B5044618B9912192
:103450001F4804F0FDFD23781B0613F0604F03D0D6
:1034600092211B4804F0F4FDE3780F2B03D9A3212C
:10347000174804F0EDFD01212020FEF727FF012170
:103480002120FEF723FF0122124B5A6022781206F8
:103490009A606178A27842EA01429A61FF229A62B8
:1034A00000229A631A644FF000425A654FF0FF32CF
:1034B0004FF4001103F500531A65074AC2F8801152
:1034C000E3781B01DBB282F81533116010BD00BF39
:1034D000248F00000000045000E100E02DE9F041DD
:1034E0000126C3B2072805460C46904606FA03F6A5
:1034F00003DDEC21354804F0ABFD1CB9ED21334868
:1035000004F0A6FD236823F47C1323F00F031BB102
:10351000F0212E4804F09CFDA37A1B0413F47C0FC9
:1035200004D040F20911294804F092FDE37A1B050A
:1035300013F07E6F04D040F20B11244804F088FD94
:10354000237B5B0513F0FE5F04D040F20D111F4892
:1035500004F07EFD30201E4A637B166521681D4FF6
:1035600002F5005242F8251000FB05752B66E37A40
:10357000A27A1B0543EA0243227B43EA425328F026
:103580000302EB652A6704F0C9FD7B6D33437B655D
:10359000237A13B13B6C33433B64637A13B1BB6B47
:1035A0003343BB632279A37943EA0243084A936118
:1035B0006179E37943EA014307498B61054B56631F
:1035C0009E64BDE8F04104F0AFBD00BF248F000051
:1035D00000200450000004500010045010B50124D5
:1035E000C3B2072804FA03F404DD40F29711074838
:1035F00004F02EFD04F092FD054B5A6D22EA040200
:103600005A659C62BDE8104004F08EBD248F000016
:103610000000045010B50124C3B2072804FA03F4D3
:1036200004DD40F2B5110A4804F012FD04F076FD05
:10363000084BDA6A224209D15B6B34EA03030CBF00
:103640000124002404F070FD204610BD0024F9E799
:10365000248F000000000450022838B505460C46AF
:1036600003D94C210C4804F0F3FCE378627821780C
:103670005B0143EA820322790B4343EA02130C22E3
:103680006A4302F1B0421363012902BFA278034BDF
:1036900043F8252038BD00BFC78F0000E8800350E5
:1036A00008B54FF0B0435A6802B960B15B680BB11E
:1036B00004F057FD4FF0B04130B10120074B586086
:1036C00004F04FFDC86008BD04F04BFD0223CB6041
:1036D00004F047FD0122024B5A60F4E70010005845
:1036E000002000584FF0B0435B6870B50BB104F098
:1036F00038FD0121104B4578596083780679002BFD
:10370000C37814BF02240024002B14BF042200221B
:103710004379DB0043EA06132B43234313434FF063
:10372000B0429360054B59600378002B14BF0B46E1
:103730000223D36070BD00BF002000580010005865
:10374000024B1868C0F30740704700BF0080E00FCD
:103750000B4B984211D003F5804398420DD003F5EE
:103760008043984209D003F58043984205D003F581
:103770008043C31A5842584170470120704700BF28
:103780000080045038B505460C46FFF7E1FF18B934
:10379000A5212B4804F05CFC284604F0EAFC012239
:1037A00005F500531A63237961881B0243EA8143BC
:1037B000617A0B436178002914BF402100210B433B
:1037C000A17A002914BF802100210B43E17A00294E
:1037D00014BF202100210B43217B002914BF10219D
:1037E00000210B43617B002914BF082100210B43FA
:1037F000A17B002914BF4FF4006100210B43A17984
:10380000002914BF4FF4803100210B436B6005F594
:1038100080531A6322780AB90223EB6000236B629B
:10382000E179237A43EA81036179002914BF1021E9
:1038300000210B43AB600AB10123EB6038BD00BF30
:10384000199000002DE9F04180460E461F461546AE
:1038500022B94FF4A171314804F0FAFB26B94FF4B4
:103860002070FEF75DFD0646402F2AD009D8A7B18B
:10387000202F1CD040F28911BDE8F041274804F008
:10388000E7BB602FF6D1B5EB960F04D940F2831158
:10389000224804F0DDFB04241DE0B5EB161F04D91B
:1038A0004FF4BA711D4804F0D3FB102413E0B5EBBC
:1038B000D60F04D940F27911184804F0C9FB082446
:1038C00009E00624B6FBF4F3AB4204D24FF4BF7117
:1038D000124804F0BDFB6C43610801EB4616B6FBD1
:1038E000F4F40F4E203CB6EBC40F4FEAC40504D2EB
:1038F0004FF4D071094804F0ABFBD8F808303540DC
:1039000023F06003C8F80830D8F808301F43C8F81F
:103910000870C8F81C50BDE8F08100BF6C90000032
:10392000F8FF7F0038B50E4B044698420D4608D08C
:1039300003F58043984204D04FF43371094804F0F2
:1039400087FB012204F580535A60EB43934003F058
:103950000A036361656115B904F50054626038BDFE
:1039600000C005506C900000194B10B598420446F9
:1039700008D003F58043984204D040F242411548F4
:1039800004F066FB012204F580535A6040F6AA63F6
:1039900041F20502636100230F49A360E365E26021
:1039A00004F500522361E361E36491640849A3656F
:1039B0008C4202D00948844207D18C42236502D050
:1039C000064B9C4201D1002363650123536010BD67
:1039D00000C005506C900000FFFF01000000065081
:1039E000444B70B5984204460D4608D003F5804319
:1039F000984204D040F2FD213F4804F029FB2046C4
:103A0000FFF7B2FF012304F580567360AB7C1BB156
:103A1000A36843F08043A360EB7C5BB1354A2B7D08
:103A2000944245D1A2F51032C2F88C31E36D43F0D7
:103A30008003E3652A8A6B7B20461343EA8913439C
:103A4000E3602B7BD5E90112FFF7FCFE6B7D1BB118
:103A5000A36843F48033A360AB7D1BB1A36843F438
:103A60000043A360EB7D2A7E1B07120502F4E002EF
:103A700003F0E0431343A365697E1E4A8B1E012BAE
:103A80001E4B1FD894421BD002F5804294420CBFBB
:103A900001224FF0FF3203EB4213022041F21C627D
:103AA0000329985020D10423F3652B78636170BDFE
:103AB000134A944204BFA2F52032C2F89C31B5E704
:103AC0000022E8E794420DD00D4A94420CBF012237
:103AD0004FF0FF3203EB4213022042F21C62012935
:103AE0009850DFE70022F5E7042204F50053DA6579
:103AF000DBE700BF00C005506C90000000C0035021
:103B00000000065007B56B46054A1068516803C3AC
:103B10006846FFF731F9002003B05DF804FB00BFF1
:103B2000BF90000013B50024064A6846536F43F067
:103B30000103536700948DF80440FFF73BF82046DB
:103B400002B010BD0040005030B58BB06C46174D30
:103B50000FCD0FC40FCD0FC495E8030084E8030018
:103B6000134BD3F84C21120318D4D3F85041E4B2CC
:103B70008DF81940FEF760FE204480F308008DF8B0
:103B800018000C48FDF7D4FE6846FEF763FD4FF4BD
:103B9000FA70FEF7BFFE00200BB030BD064B1C884C
:103BA0004FF6FF739C4208BF8C24E1E7C8900000E9
:103BB0000080E00F00F049020001E00F30B5094D30
:103BC00087B001AC0FCD0FC42B6801A82360192367
:103BD0008DF80530FEF736FE6420FEF795FE0020D6
:103BE00007B030BDF09000006FF00402502110B516
:103BF0000A480B4C12F0800FD3B21BBF03F00F0327
:103C0000043BA3181B1802F101020CBF83F8001338
:103C10001976402AEED1002010BD00BF00ED00E073
:103C200000E100E010B5044604F071FA024B1C609C
:103C300004F071FA002010BD7816002010B504F0D1
:103C400066FA034B1C6804F066FA204610BD00BFFC
:103C50007816002010B50020144604F096FA18B12A
:103C6000BF21024804F0F4F9204610BD0491000081
:103C7000302238B5037A0446534303F1A04303F5D9
:103C80008023DD6ED0E9032313449D4201D8AA426C
:103C900004D94FF43E71054804F0DAF9D4E903037E
:103CA00003449D4218BF284638BD00BF74910000F0
:103CB00030B51446054687B01046FFF7D9FF636953
:103CC000024683423CBFD4E903315B181B1AABB1F7
:103CD0001249284603910021CDE9013101230494C2
:103CE0000093D4E9001304F0D0F920B14FF43471FB
:103CF0000B4804F0ADF9002007B030BD0122627618
:103D000094F82D20002AF6D084F835301321E36989
:103D1000204698472046636A9847ECE7B13C00008C
:103D2000749100002DE9F04788B004468846174694
:103D3000994604F0F3F98246002F00F0AB80237E11
:103D400003F0FF02002B00F0DE802046FFF790FF1B
:103D500063690546984206D1637E23B940F27F31FC
:103D60006A4804F075F96669B5429CBFD4E903520C
:103D7000AD18AD1BBD4228BF3D4604F0CFF994F805
:103D80002D300646002B40F096802A464046616959
:103D900004F0B5FB63692F462B4463612CE0606936
:103DA000037803F0FD01112940F08280216B8842E5
:103DB00005D1A3F111014B424B4184F83430013F4E
:103DC0006369216B01328B4203F1010308BF236356
:103DD00063619542E3D1D4E90323216B13449942F3
:103DE00008BF2263216B8A4201D88B4204D84FF46A
:103DF0006D71464804F02CF9D4E90323616913443A
:103E0000994208BF626161698A4201D88B4204D835
:103E10004FF471713D4804F01BF90023207A63765A
:103E2000FDF7ACFF20B140F21131384804F010F931
:103E30002046FFF71DFF636983423FD10023E568F9
:103E4000237694F82D30656103B125632046636ABB
:103E500098472F4B2A460393002302932369216836
:103E600001930123207A00930494636804F00DF910
:103E700020B140F22D31254804F0EAF8207AFDF710
:103E80009DFF20B140F25131204804F0E1F8304666
:103E900004F04AF95046C9F8007004F045F9D9F821
:103EA0000030002B0CBF1B20002008B0BDE8F087BD
:103EB00008F8013B84E72F4600228AE70123207A95
:103EC00023760DF11E01FDF7E1FF20B14FF4507193
:103ED0000E4804F0BDF89DF81E30002BCED0207A9D
:103EE0000DF11F01FDF7AAFF20B140F2463107484E
:103EF00004F0AEF89DF81F100029BFD12246207AA9
:103F0000FFF7D6FEBAE71746C4E700BF749100007A
:103F1000B13C0000002808DB0123420900F01F002B
:103F200003FA00F0014B43F82200704700E100E083
:103F300000280DDB0122430900F01F0002FA00F007
:103F4000044A203342F82300BFF34F8FBFF36F8F33
:103F5000704700BF00E100E0002809DB01224309AF
:103F600000F01F0002FA00F0024A603342F823001A
:103F7000704700BF00E100E070B504460568FFF738
:103F80005DFE844202D10020FFF74CFE95F9360019
:103F9000FFF7E2FF95F93600FFF7CAFF95F9370002
:103FA000FFF7DAFF95F93700FFF7C2FF287AFDF730
:103FB00025FF20B14FF4ED71104804F049F8287A3C
:103FC000FDF782FE20B14FF4EF710C4804F040F889
:103FD000FDF758FE38B10A4B984204D04FF4F17106
:103FE000064804F035F800232846C4E90033C4E944
:103FF0000433A360AB6ABDE87040184774910000B9
:10400000058000F02DE9F843044616460D4690F869
:104010002C8004F083F894F8382003469AB104F019
:1040200083F894F83B9004F072F807460121484663
:1040300000F0DCFA384604F06EF804F06FF8002265
:10404000034684F83820184604F06EF8DFF8B49080
:104050002E44B54204D101212046236A984728E026
:1040600094F82D3083B104F059F8237E07461BBB2A
:10407000226B63699A4204D040F2F911484603F07A
:10408000E7FF384604F050F894F83430002BE0D0C5
:10409000B8F1000F06D02B780A2B03D10D21204652
:1040A000E36998472046E36915F8011B9847002803
:1040B000CFD00020BDE8F8832046FFF7D9FDE168A6
:1040C0000138884238BF2069D4F830C03CBF00F1C5
:1040D000FF30401803469C450BD013F80129112AE4
:1040E00001D0132A07D1A2F111035A425A4184F890
:1040F00034202063C5E7994282BF236903F1FF336F
:104100005B18E8E7749100002DE9F0410C46154674
:10411000064686B04022002120461F4604F0FCF9E6
:1041200095E8030000232A692376EB6884E80300FE
:10413000C4E904232A7DE36084F82C20AA7D23634C
:10414000012384F8343084F835300C9B84F82D201A
:1041500023620D9BE76163620E9BA3622B7A84F856
:1041600036306B7A84F837302D4B346073602D4BCA
:10417000B3602D4B33612D4B73612D4BF360FDF715
:10418000C9FD38B12B4B984204D01024204606B00C
:10419000BDE8F081002104F10800FDF743FD07466A
:1041A0000028F2D14FF00108234B3362234B84F8EF
:1041B0003C80B361224BF3619DF8403084F83900B4
:1041C00084F83B309DF83C30204684F83A30697DD5
:1041D00084F8388004F043F895F90900FFF7BCFE35
:1041E00095F90900FFF796FE164B0494CDE902738A
:1041F0002369CDE900836368E2682168207A03F0CF
:1042000044FF04460028C0D195F90800FFF7A4FE3A
:1042100095F90800FFF77EFE3046FFF703FDB5E78E
:1042200005400000253D00004D8200005382000043
:10423000793F0000038000F0238200005F820000CD
:1042400059820000B13C000090F8383070B5044647
:10425000E3B9036A23B94FF4CC710D4803F0F8FEBB
:1042600000212046236A9847012384F8383094F8C7
:104270003B6003F04CFF05460021304600F0B6F9E4
:10428000284603F048FF022384F83C3070BD00BF8D
:10429000749100002DE9F04101271C46594B86B06E
:1042A0000293594B0C9D0193584B904600930A463C
:1042B000CDE903772946564BFFF726FF064600282F
:1042C0007BD1236839462B6463683A206B64637A38
:1042D00085F84930237A85F84830E37A85F84B3001
:1042E000A37A85F84A30637B85F84D30237B85F8C7
:1042F0004C30E37B85F84F30A37B85F84E30FDF7DB
:10430000E5FF3B460422617A207AFEF7C7FD3B4673
:104310000222E17AA07AFEF7C1FD39466068FDF716
:10432000D5FF88F8006041462068FFF759FB14224A
:10433000637C5B0103F1A04303F57033C3F81C26D3
:10434000617A227A42EA0142C3F83426E17AA27AFB
:1043500042EA0142C3F82C2685F8506098F81930DB
:10436000032B4DD8DFE803F01A022D470123002765
:1043700085F8503000230222617B207BFEF78EFD02
:10438000637B227B617C42EA0342224B49015A5003
:104390000422236803F58053DA65AFB9237A2A6CC7
:1043A00085F84830637A052185F84930D36C206858
:1043B00043F00403D364FFF7B5FA304606B0BDE816
:1043C000F081022385F8503000230422E17BA07B9A
:1043D000FEF764FD022741F21C61627C0E4B03EB89
:1043E00042104750E07BA17BB13241EA004103EB30
:1043F00042139960D2E70323012785F85030B9E7CB
:104400002326DAE7BB820000AF820000478300006A
:104410003B83000024D6035000C00350054B1A789C
:104420002AB95B78002B14BF0220032070470120BB
:10443000704700BF6D1700200329F8B505460E46EA
:1044400007D8174B5C5C032D19D8DFE805F0090F7E
:10445000121540F23331134803F0FAFD0024F2E75D
:1044600044F00204104B1F687FB9F8BD44F0080403
:10447000F8E744F02004F5E744F08004F2E74FF455
:104480005271084803F0E4FDECE77B681A681442B7
:1044900003D0314628465B6898473F68E4E700BF91
:1044A00045920000DA910000A016002038B5104DAA
:1044B0002B78ABB10F4C23781BB100F087FB0023A6
:1044C0002370002003F0A6FF0B4C50B100F0CEFB90
:1044D0000023012120782B70FFF7AEFF012323700A
:1044E00038BD0122054B1A702278054B1A70F7E788
:1044F0006C17002067170020651700206B1700203D
:104500007217002010B503F002FE064B04461B781C
:104510001BB1BDE8104003F0FEBDFFF7C7FF20460A
:10452000F7E700BF6617002038B5134D04462B7817
:10453000FF2B05D160B140F2C731104803F088FD70
:104540002B782BB924B940F2C9310C4803F080FD17
:10455000002C14BF0122FF222B7813442B700AD0A9
:10456000074B1B78012B06D9064B1B781BB9BDE8FE
:104570003840FFF79BBF38BD6D170020DA9100006F
:10458000651700206B17002070B503F0C0FD124EB8
:10459000054633789BB900F087FC044620B12846D5
:1045A00003F0B9FD204670BD0C4803F052FD00F049
:1045B00091FE0B4B1C6000F01FFD0A4B186000F0D1
:1045C00015FA03F029FF084B002418600123284640
:1045D000337003F0A0FDE5E768170020A016002067
:1045E000A8160020A41600209C1600202DE9F341F7
:1045F000441EE3B2012B0D4604D94FF4CA71314871
:1046000003F026FD304E335DFF2B05D165B140F23E
:1046100097112C4803F01CFD335D2BB925B940F2EE
:104620009911284803F014FD002D14BF0122FF2228
:10463000335D134433553AD0244E3178012936D9AD
:10464000FFF7ECFE0128044634D8214F03F05FFD4C
:104650003B781BB31F4D2B781BB901222A701E4AD1
:104660001370DFF8788098F8003033B1019000F0D3
:10467000ADFA0023019888F8003003F04CFD0120CA
:1046800003F0C8FE03F043FD2B782BB1019000F03E
:10469000EDFA002301982B7000233B7003F03BFDE3
:1046A0003078A04203D02146FFF7C6FE347002B036
:1046B000BDE8F0810329F3D10228F1D103F0B0FE67
:1046C000EEE700BFDA9100006D17002065170020AB
:1046D0006C170020661700206B170020671700205A
:1046E00068B503F014FD094B06461B78012B04D86E
:1046F00003F011FD0025284668BD054B1D6800F03C
:10470000EFFA0544304603F006FDF4E76517002094
:10471000A816002038B54160044603F0F8FC0546B1
:1047200021460448FDF71EF92846BDE8384003F04D
:10473000F2BC00BFA0160020054B1B685843054B78
:1047400000F5742000F23F20B0FBF3F0704700BF8B
:10475000A416002040420F002DE9FF47EFF310861A
:1047600072B600E000BF03F0E2FB002800F0A88072
:10477000744D754F2B7823B10020FFF7D5FE002331
:104780002B70FFF74BFE012812D00AD90238C0B2B5
:10479000012840F29C804FF46C716C4803F058FC87
:1047A00006E02B7823B10020FFF7BEFE00232B701C
:1047B000FFF734FE0128804604D9654B1B780BB9FE
:1047C00003F026FE634CDFF8AC912078DFF8A8A157
:1047D00040450AD0002389F800309AF8003013B918
:1047E0004146FFF729FE84F8008099F800303BB17C
:1047F0002378022B04D1002389F8003000E000BFA9
:10480000B8F1010F0FD9DFF8488198F8003053B99B
:10481000514B1B7823B900F0D3F901224F4B1A708A
:10482000012388F80030207800F03EFA9AF8003032
:1048300013B14B4B1B78237000E000BF06B962B682
:10484000EFF3108672B6474B1A7852B100221A70F5
:10485000434B20781B78984203D101212170FFF748
:10486000EBFD384600F05AFB03F06CFB8046002855
:1048700080D189F80000DFF8D89099F8003093B122
:10488000364F8AF800003B781BB100F09FF987F89B
:104890000080002003F0BEFD002849D000F0E6F9BA
:1048A000002389F800302B7823B10020FFF73CFE6D
:1048B00000232B7000212078FFF7BEFD002323701A
:1048C00000E000BF06B962B604B0BDE8F087002082
:1048D00003A900F04BFB00287FF46AAF224B039A38
:1048E0001B689A4204D80120FFF71EFE01235EE7F1
:1048F0001E4B1C6800F0F4F9241804D540F29931DD
:10490000124803F0A5FB039B9C42ECD200F0FAF99D
:1049100000280CBF0023042343F00203019300236B
:1049200003993846124A0093091B03F07AFD3FE7CA
:10493000012000F0B9F906B962B6EFF3108672B63D
:10494000A7E700BF711700207C160020DA91000055
:104950006C170020651700207017002067170020D3
:10496000721700206A1700209C160020A81600204D
:10497000054500006F1700206B17002010B503F0ED
:10498000C6FB0022044B1C781A7003F0C4FB00F035
:10499000E5FB2043C0B210BD6917002073B5114E6E
:1049A00004463378834212D000238DF8043080B15E
:1049B00002238DF8053001A8FEF7ACF80A4D40201F
:1049C00054B1FFF7B9FE2B68181A2860347002B092
:1049D00070BD8DF80500EEE7FFF7AEFE2B681844BA
:1049E000F3E700BFF4110020E416002073B50024A3
:1049F00001A88DF80440FEF757F920464FF4002433
:104A0000FFF7CCFF4049414B0A6F414802F00702D3
:104A10001A60D1F82031D1F8241144664FF40034E3
:104A2000446600F5983080693A4DC0F34000032A8F
:104A300001F00701287052D003F00303981E43428F
:104A40004341022908BF43F00103334C4FF4C870BF
:104A50002370FFF771FE314B314A18600A23166844
:104A60003049013B13F0FF0341F8040BF9D100EB8F
:104A7000C003304418442B7810602B4D002B3AD0E3
:104A80002378214A3BB9D2F8003103F00303591EC1
:104A90004B424B412370D2F8003103F00303022B49
:104AA0001FD0032B20D0012B21D1FCF73BFF10B3EB
:104AB0001E4B411EDC680023024608461946C4F31B
:104AC0000B041B4E013404EB8404E4FB060101F0EB
:104AD0006FF8FFF731FE2B68184428600BE00123C4
:104AE000AFE7FCF739FFE2E703F0AAFADFE7EC21D2
:104AF000104803F0ADFA1F20FFF71EFE2B68184484
:104B0000286002B070BD00BF00800050AC160020CD
:104B1000009000507417002077170020E016002046
:104B2000B4160020B8160020E416002000C0015082
:104B300040420F0049920000074B1A7852B1002200
:104B40001A70064A136F23F0070343F0010313673B
:104B5000FCF7D2BE704700BF7517002000800050E0
:104B600008B5124B1B78FBB1022003F097FCD8B1BB
:104B700000F02EFAC0B10E4B9A6DD20302D5DB6D58
:104B80009B0711D401220B4B1A7003F066FC0A4BF1
:104B90000A4A1860136F23F0070343F003031367F7
:104BA000BDE80840FCF7A8BE08BD00BF771700208D
:104BB00000C0005076170020B01600200080005082
:104BC0000122014B1A70704775170020F8B51E4B73
:104BD0001B78002B36D01D4C23789BB91C4B9A6D4B
:104BE000D20302D5DB6D9B072CD403F036FC194BA6
:104BF000194A1860136F23F0070343F00303136788
:104C0000FCF77AFE03F029FC124B144D1B68144E7E
:104C1000C01A2B78134F56F8232046F82300111A98
:104C20003A681148521A0A213A600932B2FBF1F28D
:104C30000133DBB20260B3FBF1F201FB12332B70E4
:104C400000232370F8BD00BF7717002076170020DF
:104C500000C00050B01600200080005073170020E4
:104C6000B8160020B4160020E016002008B503F0A6
:104C700062FA094A0949136F096823F007030B43D5
:104C80001367074B1B7813B10122064B9A62BDE8EC
:104C90000840FCF731BE00BF00800050AC16002079
:104CA0007717002000E0005002280AD003280BD01C
:104CB00001280CD1084A136923F00403136130BFA3
:104CC00070470020FDF732BF0020FDF753BF40F2D0
:104CD0000D21024803F0BCB900ED00E0499200004C
:104CE000054B1B781BB1054B1B6803EBD303044A30
:104CF00010681844704700BF77170020E0160020A6
:104D0000E4160020014B1878704700BF7717002089
:104D100010B503F0B0FB0A4C0A4B19682368C31A9C
:104D200001B10BB9206010BD4A699A423ABF9B1A83
:104D30000022D21A4A6128BF00238968F0E700BF29
:104D4000E8160020F4160020C38870B504460D460E
:104D50003BB9FFF7C5FC8542064602D203F04CFB87
:104D600035460F4965610B68ABB90C60A36011E073
:104D7000AD1A9A68184665612AB113465A69AA4263
:104D8000F6D950B11A4613468460A36013B159692D
:104D9000491B596170BD0020F0E70C60F5E700BFCA
:104DA000F416002038B5134D2B685B6993B1124A95
:104DB000022014681C4403F065FB204600F01EFA34
:104DC00000230E492A680B70D088800709D501237B
:104DD0000B7038BD022003F055FB022000F058FA9A
:104DE000EEE79268002AF4D050690344012BEBD916
:104DF000EFE700BFF4160020E81600207917002026
:104E000070B516469DF81420C0E903360271049A65
:104E1000BDF818300260002204460D468260C3804F
:104E200006BB03F028FB2844A0613DB9E368656137
:104E300013B120462168984796B1354603F067F9CB
:104E40000646FFF765FF29462046FFF77DFF074B23
:104E50001B68A34201D1FFF7A5FF304603F05BF9C1
:104E6000002070BD03F007FB3044DDE7F41600209E
:104E700000220C490B687BB183420AD183687AB166
:104E8000936083681BB15A6941690A445A610020E2
:104E900070471A469B68EEE70028EFD00220704763
:104EA0000B60EEE7F416002070B503F037F9144EEE
:104EB00005463478FCB9134B1C60134B1C60134B34
:104EC0001C8000F057F9012003F0DCFA03F0F5FA3A
:104ED0000F4B0246186020B9284603F025F923201D
:104EE00070BD234640F2E7310A4800F061FE0A4BEC
:104EF000186001233370284603F016F90020EFE70D
:104F000078170020F4160020E8160020041700206F
:104F1000F016002018FCFFFFEC1600202DE9F041F0
:104F20000546F8B103F0F3F80F4F0646FFF7F0FE21
:104F30002846D7F80080FFF79BFF044628B130468B
:104F400003F0E9F82046BDE8F081A8453B6803D1AD
:104F500023B1FFF727FFF2E7002BF0D1022000F08A
:104F60007FF9ECE72224EDE7F41600202DE9F0416B
:104F70000746884603F0D2F800260546124B1C6807
:104F800024B9284603F0D0F81B2016E063691E44BC
:104F9000E388BB4215D103F06EFA0C4C2368C01AAB
:104FA000B0420CD203F067FA22683244121A284643
:104FB000C8F8002003F0B8F80020BDE8F081002216
:104FC000F5E7A468DCE700BFF4160020E81600202F
:104FD00008B5074B187848B103F03FFA054B1B683A
:104FE0009B69C01A02288CBF0020012008BD00BFA9
:104FF00079170020F4160020014B1868704700BF95
:10500000F0160020C2072DE9F84F04460BD54F4A91
:10501000138801339BB21380FFF77AFE4C4B1B6859
:105020000BB1FFF7BFFEA30740F18E8003F076F8C7
:105030004FF0000A05465646FFF76AFED046444F39
:10504000DFF814913C680CB163698BB10022414BCD
:10505000012E1A7003D11AF0020F18BF1E70002C17
:1050600062D0FFF79FFE2846BDE8F84F03F05CB81A
:1050700023461A792179914288BF1C469B6813B157
:105080005A69002AF5D0284603F04EF8D4F810A04B
:10509000BAF1000F4CD003F0EEF9A269851AEB17B4
:1050A000AA4578EB030344DA236913440122A36180
:1050B00023691BB312BBEB17BAEB050563EB430384
:1050C000002B04DA40F22151484602F0C1FFA38BC5
:1050D00033B1E28B13449BB2B3F57A7F1CD2E383E6
:1050E00003F01CF8824629462046FFF72DFEA369EF
:1050F000226950461344A36103F016F8E368B4F83C
:1051000006A0013613B120462168984703F006F83F
:105110000546FFF7FDFD95E7A3F57A73E383A369E1
:10512000013D013BA361DBE7022000F099F89AE71B
:10513000554602F0F3FF83462046FFF799FE584696
:1051400002F0F2FF0022B3E7BDE8F88F0417002059
:10515000F41600207A170020BB92000010B502F070
:10516000DDFF034B1C7802F0DFFF204610BD00BFBF
:105170007A1700201FB500241D4B012118689A885A
:105180000290D3F806009B7A00903E20ADF80C20E8
:105190008DF80430FDF79AF88DF8084003F069F9AE
:1051A0008DF80C0002A8FEF79DFA694601208DF8E3
:1051B0000040FEF751FA4FF0B04240F2FF319369E0
:1051C00023F47F7323F0030393610A4B5961936ABD
:1051D00013F00803FBD113620120FEF761FA4FF4CC
:1051E0008052054BC3F880211A6004B010BD00BF87
:1051F000209300000020005800E100E010B50446B4
:1052000002F085FF4FF0B042936A1907FCD4136A8D
:10521000116C5269520604D4CA1A032A01D88B426F
:105220000ED1E21A022A98BFDC1CB4F1FF3F38BF4E
:10523000013C4FF0B0431C649A6942F040029A610D
:1052400002F069FF054A13783BB14FF0B041CB6BD8
:1052500043F00203CB630023137010BDF51100204F
:10526000820700F001030AD50121084A43F04003F8
:1052700011704FF0B041CA6B22F00302CA634FF0C5
:10528000B0418A6922EA03038B617047F51100205F
:10529000830742BF4022014B5A61704700100058FB
:1052A00010B502F03BFF4FF0B04304465B695A066D
:1052B000074A03F0010003F0510348BF40F0020029
:1052C0005361FFF79FFE2046BDE8104002F02CBF5F
:1052D000002000580A4B10B5D3F8403203F0030306
:1052E000013B012B0BD802F012FF044601210220E2
:1052F000FFF77CF92046BDE8104002F00CBF10BD5E
:105300000080005081F0004102E000BF83F00043C4
:1053100030B54FEA41044FEA430594EA050F08BF50
:1053200090EA020F1FBF54EA000C55EA020C7FEA14
:10533000645C7FEA655C00F0E2804FEA5454D4EB91
:105340005555B8BF6D420CDD2C4480EA020281EA5B
:10535000030382EA000083EA010180EA020281EA93
:105360000303362D88BF30BD11F0004F4FEA0131E5
:105370004FF4801C4CEA113102D0404261EB4101F4
:1053800013F0004F4FEA03334CEA133302D052427A
:1053900063EB430394EA050F00F0A780A4F1010436
:1053A000D5F1200E0DDB02FA0EFC22FA05F2801870
:1053B00041F1000103FA0EF2801843FA05F3594156
:1053C0000EE0A5F120050EF1200E012A03FA0EFCD5
:1053D00028BF4CF0020C43FA05F3C01851EBE371FF
:1053E00001F0004507D54FF0000EDCF1000C7EEB1C
:1053F00000006EEB0101B1F5801F1BD3B1F5001F5A
:105400000CD349085FEA30004FEA3C0C04F1010478
:105410004FEA445212F5800F80F09A80BCF1004FA1
:1054200008BF5FEA500C50F1000041EB045141EA23
:10543000050130BD5FEA4C0C404141EB0101013CEC
:1054400028BFB1F5801FE9D291F0000F04BF0146DB
:105450000020B1FA81F308BF2033A3F10B03B3F1AD
:1054600020020CDA0C3208DD02F1140CC2F10C023D
:1054700001FA0CF021FA02F10CE002F11402D8BF9B
:10548000C2F1200C01FA02F120FA0CFCDCBF41EA67
:105490000C019040E41AA2BF01EB0451294330BD36
:1054A0006FEA04041F3C1CDA0C340EDC04F1140413
:1054B000C4F1200220FA04F001FA02F340EA0300EA
:1054C00021FA04F345EA030130BDC4F10C04C4F130
:1054D000200220FA02F001FA04F340EA0300294610
:1054E00030BD21FA04F0294630BD94F0000F83F45A
:1054F000801306BF81F480110134013D4EE77FEA3D
:10550000645C18BF7FEA655C29D094EA050F08BF88
:1055100090EA020F05D054EA000C04BF1946104669
:1055200030BD91EA030F1EBF0021002030BD5FEAAD
:10553000545C05D14000494128BF41F0004130BDD5
:1055400014F580043CBF01F5801130BD01F0004529
:1055500045F0FE4141F470014FF0000030BD7FEA9C
:10556000645C1ABF194610467FEA655C1CBF0B4697
:10557000024650EA013406BF52EA033591EA030FAE
:1055800041F4002130BD00BF90F0000F04BF0021A6
:10559000704730B54FF4806404F132044FF00005D9
:1055A0004FF0000150E700BF90F0000F04BF002152
:1055B000704730B54FF4806404F1320410F00045B8
:1055C00048BF40424FF000013EE700BF42004FEAB3
:1055D000E2014FEA31014FEA02701FBF12F07F4330
:1055E00093F07F4F81F06051704732F07F4208BFE7
:1055F000704793F07F4F04BF41F40021704730B5EE
:105600004FF4607401F0004521F000411CE700BF39
:1056100050EA010208BF704730B54FF000050AE0BC
:1056200050EA010208BF704730B511F0004502D5BD
:10563000404261EB41014FF4806404F132045FEABF
:10564000915C3FF4D8AE4FF003025FEADC0C18BF68
:1056500003325FEADC0C18BF033202EBDC02C2F15A
:10566000200300FA03FC20FA02F001FA03FE40EAEC
:105670000E0021FA02F11444BDE600BF70B54FF0F0
:10568000FF0C4CF4E06C1CEA11541DBF1CEA1355CE
:1056900094EA0C0F95EA0C0F00F0DEF82C4481EA36
:1056A000030621EA4C5123EA4C5350EA013518BF56
:1056B00052EA033541F4801143F4801338D0A0FB43
:1056C00002CE4FF00005E1FB02E506F00042E0FBF0
:1056D00003E54FF00006E1FB03569CF0000F18BFF6
:1056E0004EF0010EA4F1FF04B6F5007F64F540749E
:1056F00004D25FEA4E0E6D4146EB060642EAC62131
:1057000041EA55514FEAC52040EA5E504FEACE2E9D
:10571000B4F1FD0C88BFBCF5E06F1ED8BEF1004FA0
:1057200008BF5FEA500E50F1000041EB045170BD1C
:1057300006F0004646EA010140EA020081EA030160
:10574000B4EB5C04C2BFD4EB0C0541EA045170BD5C
:1057500041F480114FF0000E013C00F3AB8014F1D6
:10576000360FDEBF002001F0004170BDC4F100041F
:10577000203C35DA0C341BDC04F11404C4F12005A0
:1057800000FA05F320FA04F001FA05F240EA0200FB
:1057900001F0004221F0004110EBD37021FA04F631
:1057A00042EB06015EEA430E08BF20EAD37070BDEB
:1057B000C4F10C04C4F1200500FA04F320FA05F04A
:1057C00001FA04F240EA020001F0004110EBD3704C
:1057D00041F100015EEA430E08BF20EAD37070BDBC
:1057E000C4F1200500FA05F24EEA020E20FA04F395
:1057F00001FA05F243EA020321FA04F001F0004144
:1058000021FA04F220EA020000EBD3705EEA430EB4
:1058100008BF20EAD37070BD94F0000F0FD101F0E3
:105820000046400041EB010111F4801F08BF013C1C
:10583000F7D041EA060195F0000F18BF704703F05A
:105840000046520043EB030313F4801F08BF013DE1
:10585000F7D043EA0603704794EA0C0F0CEA13559D
:1058600018BF95EA0C0F0CD050EA410618BF52EA57
:105870004306D1D181EA030101F000414FF000005D
:1058800070BD50EA410606BF1046194652EA43066B
:1058900019D094EA0C0F02D150EA013613D195EADF
:1058A0000C0F05D152EA03361CBF104619460AD127
:1058B00081EA030101F0004141F0FE4141F4700131
:1058C0004FF0000070BD41F0FE4141F4780170BD21
:1058D00070B54FF0FF0C4CF4E06C1CEA11541DBF86
:1058E0001CEA135594EA0C0F95EA0C0F00F0A7F888
:1058F000A4EB050481EA030E52EA03354FEA0131B5
:1059000000F088804FEA03334FF0805545EA1313C7
:1059100043EA12634FEA022245EA111545EA10658F
:105920004FEA00260EF000419D4208BF964244F126
:10593000FD0404F5407402D25B084FEA3202B61A45
:1059400065EB03055B084FEA32024FF480104FF419
:10595000002CB6EB020E75EB030E22BFB61A75468D
:1059600040EA0C005B084FEA3202B6EB020E75EB20
:10597000030E22BFB61A754640EA5C005B084FEA88
:105980003202B6EB020E75EB030E22BFB61A754655
:1059900040EA9C005B084FEA3202B6EB020E75EB60
:1059A000030E22BFB61A754640EADC0055EA060E21
:1059B00018D04FEA051545EA16754FEA06164FEA64
:1059C000C30343EA52734FEAC2025FEA1C1CC0D110
:1059D00011F4801F0BD141EA00014FF000004FF09D
:1059E000004CB6E711F4801F04BF01430020B4F15E
:1059F000FD0C88BFBCF5E06F3FF6AFAEB5EB030C16
:105A000004BFB6EB020C5FEA500C50F1000041EB12
:105A1000045170BD0EF0004E4EEA113114EB5C04DF
:105A2000C2BFD4EB0C0541EA045170BD41F48011B2
:105A30004FF0000E013C90E645EA060E8DE60CEABA
:105A4000135594EA0C0F08BF95EA0C0F3FF43BAFD7
:105A500094EA0C0F0AD150EA01347FF434AF95EA8E
:105A60000C0F7FF425AF104619462CE795EA0C0F72
:105A700006D152EA03353FF4FDAE1046194622E73F
:105A800050EA410618BF52EA43067FF4C5AE50EA19
:105A900041047FF40DAF52EA43057FF4EBAE12E709
:105AA0004FF0FF3C06E000BF4FF0010C02E000BFEA
:105AB0004FF0010C4DF804CD4FEA410C7FEA6C5CCD
:105AC0004FEA430C18BF7FEA6C5C1BD001B050EA70
:105AD000410C0CBF52EA430C91EA030F02BF90EA5B
